:020000040801F1
:10000000900400200D020108B118010855170108DD
:10001000AD180108190301084D1F01080000000078
:10002000000000000000000000000000B5180108FA
:100030001D03010800000000B3180108B7180108EB
:1000400027020108270201082702010827020108E8
:1000500027020108270201082702010827020108D8
:1000600027020108270201082702010827020108C8
:1000700027020108270201082702010827020108B8
:1000800027020108270201082702010827020108A8
:100090002702010827020108270201082702010898
:1000A0002702010827020108270201082702010888
:1000B0002702010827020108270201082702010878
:1000C0002702010827020108270201082702010868
:1000D0002702010827020108270201082702010858
:1000E0002702010827020108270201082702010848
:1000F0002702010827020108270201082702010838
:100100002702010827020108270201082702010827
:100110002702010827020108270201082702010817
:100120002702010827020108270201082702010807
:1001300027020108270201082702010827020108F7
:1001400027020108270201082702010827020108E7
:1001500027020108270201082702010827020108D7
:1001600027020108270201082702010827020108C7
:1001700027020108270201082702010800000000E9
:1001800027020108270201082702010827020108A7
:100190002702010827020108270201082702010897
:1001A0002702010827020108270201082702010887
:1001B0002702010827020108270201082702010877
:1001C0002702010827020108000000002702010899
:1001D0002702010827020108270201082702010857
:1001E0002702010827020108270201082702010847
:1001F0002702010827020108DFF80CD000F07AF886
:1002000000480047A91F01089004002006488047C5
:1002100006480047FEE7FEE7FEE7FEE7FEE7FEE7EB
:10022000FEE7FEE7FEE7FEE79D190108F901010878
:100230002DE9F05F0546002092469B46884606461B
:10024000814640241BE0284641464746224600F0AE
:1002500041F853465A46C01A914110D311461846E8
:10026000224600F028F82D1A67EB01084F46224677
:100270000120002100F01FF817EB00094E41201E5D
:10028000A4F10104DFDC484631462A464346BDE876
:10029000F09FD2B201E000F8012B491EFBD270475B
:1002A0000022F6E710B513460A4604461946FFF742
:1002B000F0FF204610BD202A04DB203A00FA02F1AC
:1002C000002070479140C2F1200320FA03F3194344
:1002D00090407047202A04DB203A21FA02F00021E6
:1002E000704721FA02F3D040C2F120029140084346
:1002F00019467047064C074D06E0E06840F00103E0
:1003000094E8070098471034AC42F6D3FFF778FF23
:10031000FC1F01081C20010800BFFEE77047704762
:1003200070B5044600F02CF906462546681C10B14D
:1003300004480078054400BF00F022F9801BA84261
:10034000FAD370BD08000020F8B502460B46002124
:1003500000250024002000BFE4E0012606FA01F594
:100360001E6806EA0504AC4271D15E68022E02D016
:100370005E68122E13D1CF0802F1200656F827002E
:100380004E07F70E0F26BE40B0434F07FF0E1E6903
:10039000BE403043CF0802F1200646F8270010681F
:1003A0004F000326BE40B0431E7906F003064F00FF
:1003B000BE40304310605E68012E08D05E68022E99
:1003C00005D05E68112E02D05E68122E13D190689F
:1003D0004F000326BE40B0434F00DE68BE403043AE
:1003E0009060506801268E40B0431E79C6F3001617
:1003F0008E4030435060D0684F000326BE40B0436B
:100400004F009E68BE403043D0605E6806F0805664
:10041000B6F1805FA8D100BF444E366846F48046EE
:10042000424F3E603E46366806F48046009600BF66
:1004300000BF3F4E8F0856F827008E07370F0F2654
:10044000BE40B0433B4EB24202D100262EE068E0EF
:10045000394EB24201D1012628E0384EB24201D1D4
:10046000022623E0364EB24201D103261EE0354E6D
:10047000B24201D1042619E0334EB24201D1052621
:1004800014E0324EB24201D106260FE0304EB242A5
:1004900001D107260AE02F4EB24201D1082605E01D
:1004A0002D4EB24201D1092600E00A268F073F0FE8
:1004B000BE4030431E4E8F0846F82700274E306856
:1004C000A0435E6806F48036B6F5803F00D1204335
:1004D000224E3060361D3068A0435E6806F4003658
:1004E000B6F5003F00D120431C4E361D3060361D4E
:1004F0003068A0435E6806F48016B6F5801F00D110
:100500002043164E08363060361D3068A0435E68C2
:1005100006F40016B6F5001F00D120430F4E0C362E
:100520003060491C1029FFF418AFF8BD4438024070
:100530000838014000000240000402400008024068
:10054000000C02400010024000140240001802405B
:10055000001C02400020024000240240003C0140F8
:1005600042690A408A4202D10A04826100E0816144
:1005700070470AB1816101E00B048361704700009C
:100580000148006870470000000000200348006830
:1005900003490978084401490860704700000020B9
:1005A0000800002010B5032000F08CF8002000F0B7
:1005B00005F800F029F8002010BD000070B50446D1
:1005C0000E4800784FF47A71B1FBF0F00C490968DD
:1005D000B1FBF0F5284601F029F808B1012070BD03
:1005E000102C07D200222146501E00F02DF805489D
:1005F000046001E00120F2E70020F0E7080000209D
:100600000C0000200400002008B500BF0D48006861
:1006100040F080500B4908600846006800F08050A8
:10062000009000BF00BF00BF081D006840F480407C
:10063000091D08600846006800F48040009000BF73
:1006400000BF08BD403802402DE9F05F80460D46EE
:100650001646002701F07CFC074639462A463346F9
:1006600001F00700C0F1070ABAF1040F02D94FF0F8
:10067000040A01E0C0F1070AD14600F1040ABAF108
:10068000070F02D24FF0000A01E0A0F1030AD4469E
:100690004FF0010A0AFA09FAAAF1010A0AEA020A63
:1006A0000AFA0CFA4FF0010B0BFA0CFBABF1010B41
:1006B0000BEA030B4AEA0B042146404601F050FCCA
:1006C000BDE8F09F00BF00F00702064B19684FF627
:1006D000FF031940044B0B4343EA0221014B19600D
:1006E00000BF70470CED00E00000FA0538B50024AB
:1006F00000BF2048006840F080501E49086008464E
:10070000006800F08050009000BF00BF1A480068E9
:1007100040F4803018490860FFF732FF044607E0D4
:10072000FFF72EFF001BB0F57A7F01D9032038BDFB
:100730001148406800F48030B0F5803FF0D10E4899
:10074000006840F400300C490860FFF719FF0446C8
:1007500007E0FFF715FF001BB0F57A7F01D90320F2
:10076000E5E70548406800F40030B0F5003FF0D1FF
:100770000020DCE740380240007000400348006879
:1007800040F480700149086070470000007000402C
:100790002DE9F8430446002600250027A846A9466F
:1007A000207800F0010088B100BFFE48006820F406
:1007B0000000FC49086008460068616B0843F9497D
:1007C000086000BF606B08B94FF00108206800F4B2
:1007D0000020B0F5002F13D1F2488430006820F4D7
:1007E0004010E16B0843EF4984310860E06BB0F5DD
:1007F000801F01D14FF00108E06B08B94FF00109EB
:10080000206800F48010B0F5801F13D1E5488430D3
:10081000006820F44000216C0843E24984310860FC
:10082000206CB0F5800F01D14FF00108206C08B9A1
:100830004FF00109206800F08070B0F1807F01D195
:100840004FF00108207800F02000202870D100BF70
:10085000D4483830006840F08050D24938310860C0
:100860000846006800F08050009000BF00BFCE48EE
:10087000006840F48070CC490860FFF781FE0646AE
:1008800007E0FFF77DFE801B642802D90320BDE846
:10089000F883C548006800F480700028F1D0C14892
:1008A0006830006800F4407585B3208E00F4407015
:1008B000A8422BD0BB486830006820F44075B94886
:1008C0006830006840F48030B649683108600846F6
:1008D000006820F48030086008460560006800F079
:1008E000010098B1FFF74CFE064608E0FFF748FE0E
:1008F000801B41F28831884201D90320C7E7A9480B
:1009000068300068C0F340000028EFD000BF208EA0
:1009100000F44070B0F5407F0BD1A248006820F48D
:10092000F810A24A216B114008439E49086006E076
:1009300010E09C48006820F4F8109A490860994833
:1009400068300068218EC1F30B0108439549683176
:10095000086000BF207800F01000102810D100BF00
:1009600090488430006820F080708E49843108609F
:1009700008460068A16B08438A498431086000BFBB
:10098000208800F48040B0F5804F09D18548883038
:10099000006820F44030616E084382498831086065
:1009A000208800F40040B0F5004F09D17D48883020
:1009B000006820F44020A16E08437A49883108601D
:1009C000206800F48030B0F5803F09D17548883048
:1009D000006820F44010E16E0843724988310860D5
:1009E000206800F40030B0F5003F09D16D48883030
:1009F000006820F44000216F08436A49883108608C
:100A0000207800F04000402809D16648883000680E
:100A100020F00300616C0843624988310860207847
:100A200000F08000802809D15E488830006820F0FE
:100A30000C00A16C08435B4988310860208800F4F1
:100A40008070B0F5807F09D156488830006820F06A
:100A50003000E16C0843534988310860208800F475
:100A60000070B0F5007F09D14E488830006820F052
:100A7000C000216D08434B4988310860208800F48C
:100A80008060B0F5806F09D146488830006820F456
:100A90004070616D0843434988310860208800F444
:100AA0000060B0F5006F09D13E488830006820F43E
:100AB0004060A16D08433B4988310860208800F4FC
:100AC0008050B0F5805F09D136488830006820F446
:100AD0004050E16D0843334988310860208800F4B4
:100AE0000050B0F5005F09D12E488830006820F42E
:100AF0004040216E08432B4988310860206800F48B
:100B00008000B0F5800F09D126488830006820F0B9
:100B10008060A16F0843234988310860206800F491
:100B20000010B0F5001F0FD11E488830006820F07B
:100B30000060E16F08431B4988310860E06FB0F145
:100B4000006F01D14FF00109207800F0080008285B
:100B500001D14FF00109206800F48020B0F5802F0A
:100B600009D110488830006820F04070616F084358
:100B70000C4988310860206800F40000B0F5000FCF
:100B80000AD108488830006820F08050D4F88010DE
:100B90000843044988310860206800F08060B0F1A3
:100BA000806F05E00838024000700040FFFCFF0F36
:100BB00008D1CC48006820F00050D4F884100843D5
:100BC000C8490860206800F00060B0F1006F0AD1E9
:100BD000C448001F006820F00070D4F88810084353
:100BE000C049091F0860206800F08050B0F1805FA4
:100BF0000AD1BC48001F006820F08060D4F88C1037
:100C00000843B849091F0860B8F1010F03D02068F4
:100C1000B0F1007F7ED1B3489038006820F080604A
:100C2000B04990390860FFF7ABFC064606E0FFF7D5
:100C3000A7FC801B642801D9032028E6A948903826
:100C40000068C0F3C0600028F1D1207800F00100F6
:100C5000B8B1606BA8B9A3480C380068C0F301456F
:100C6000A0480C380068C0F303676068800140EA60
:100C7000054040EA0761207A41EA007099490C3941
:100C80000860206800F40020B0F5002F03D1E06B6D
:100C9000B0F5801F09D0206800F48010B0F5801FE7
:100CA00024D1206CB0F5800F20D18E480C3800681C
:100CB000C0F301458B480C380068C0F302776068C8
:100CC000800140EA0541207B41EA006040EA07706C
:100CD00084490C3908608348001F006820F01F0019
:100CE000616A491E08437F49091F0860206800F0B7
:100CF0008070B0F1807F17D17A480C380068C0F35B
:100D0000036578480C380068C0F302776068810199
:100D1000208A00E036E041EA004040EA056040EA0F
:100D2000077070490C390860206800F00070B0F15D
:100D3000007F0DD160688101208A41EA0041207B5B
:100D400041EA0061207A41EA007066490C39086086
:100D500064489038006840F08060624990390860CB
:100D6000FFF70EFC064606E0FFF70AFC801B64282E
:100D700001D903208BE55B4890380068C0F3C06060
:100D80000028F1D0B9F1010F7ED1564890380068A3
:100D900020F08050534990390860FFF7F1FB064678
:100DA00006E0FFF7EDFB801B642801D903206EE508
:100DB0004C4890380068C0F340700028F1D120689A
:100DC00000F40020B0F5002F01D1E06B38B12068AD
:100DD00000F48010B0F5801F22D1206C00BB414888
:100DE00008380068C0F301453E4808380068C0F381
:100DF00002776069800140EA0541207E41EA006097
:100E000040EA0770374908390860081D006820F477
:100E1000F851A06A401E41EA00203249091F0860CB
:100E2000206800F40010B0F5001F19D1E06FB0F198
:100E3000006F15D12B4808380068C0F303652948B6
:100E400008380068C0F3027760698101208C41EAAC
:100E5000004040EA056040EA07702249083908600E
:100E6000207800F00800082820D11E4808380068C3
:100E7000C0F303651B4808380068C0F30147606988
:100E8000800140EA074000E02AE040EA0561207F57
:100E900041EA0070134908390860081D006820F411
:100EA0004030E16A08430F49091F08600D48903837
:100EB000006840F080500B4990390860FFF760FBF4
:100EC000064606E0FFF75CFB801B642801D903207F
:100ED000DDE4044890380068C0F340700028F1D089
:100EE0000020D4E49038024070B504460D46002638
:100EF0000CB9012070BD5C48006800F00F00A842EA
:100F00000ED25948006820F00F0028435649086067
:100F10000846006800F00F00A84201D00120E9E770
:100F2000207800F0020002281DD1207800F0040093
:100F3000042805D14D48006840F4E0504B49086052
:100F4000207800F00800082805D14848006840F4DF
:100F50006040464908604548006820F0F000A168FC
:100F6000084342490860207800F0010090B36068AF
:100F7000012807D13D4808380068C0F34040A0B9B7
:100F80000120B7E76068022807D1384808380068B0
:100F9000C0F3406048B90120ACE734480838006825
:100FA000C0F3400008B90120A4E73048006820F0F1
:100FB0000300616808432D490860FFF7E1FA06461F
:100FC00009E0FFF7DDFA801B41F28831884202D93F
:100FD00003208FE707E02548006800F00C006168F7
:100FE000B0EB810FEDD12048006800F00F00A8425F
:100FF0000ED91D48006820F00F0028431A490860E8
:101000000846006800F00F00A84201D0012071E7F7
:10101000207800F00400042807D11448006820F468
:10102000E050E168084311490860207800F00800AA
:10103000082808D10D48006820F46040216940EA82
:10104000C1000A49086000F03DF808490968C1F389
:101050000311074A515CC840064908600020FFF7A9
:10106000ADFA002046E70000003C0240083802408C
:10107000E41F01080C0000200148006870470000D0
:101080000C00002000B5FFF7F7FF04490968C1F321
:101090008221034A515CC84000BD0000083802406C
:1010A000F41F010800B5FFF7E7FF04490968C1F321
:1010B0004231034A515CC84000BD0000083802407C
:1010C000F41F01082DE9F047002400250026A14661
:1010D0002548006800F00C0020B1042805D008283D
:1010E0003AD105E0DFF8849039E0DFF8849036E00B
:1010F0001D48001F006800F03F041B48001F0068E7
:1011000000F4800078B11A481749091F0968C1F333
:101110008811A0FB01700146224600233846FFF7E4
:1011200087F805460EE011480F49091F0968C1F309
:101130008811A0FB01700146224600233846FFF7C4
:1011400077F805460848001F0068C0F30140401CBE
:101150004600B5FBF6F902E0DFF8109000BF00BFD3
:101160004846BDE8F0870000083802400024F4003B
:1011700000127A00F8B5044600260CB90120F8BD2B
:10118000207800F00100002871D0F848006800F0D5
:101190000C0004280DD0F548006800F00C00082869
:1011A00013D1F248001F006800F48000B0F5800FF2
:1011B0000BD1EE4808380068C0F34040002869D0E1
:1011C0006068002866D10120D9E700BF6068B0F5EB
:1011D000803F08D1E5480838006840F48030E34992
:1011E000083908602EE0606868B9E048083800688F
:1011F00020F48030DD49083908600846006820F492
:10120000802008601EE06068B0F5A02F0DD1D7489F
:101210000838006840F48020D4490839086008463E
:10122000006840F4803008600CE0D048083800685E
:1012300020F48030CD49083908600846006820F461
:101240008020086000BF606890B1FFF799F90546FB
:1012500006E0FFF795F9401B642801D903208EE7CB
:10126000C24808380068C0F340400028F1D011E0BF
:10127000FFF786F9054606E0FFF782F9401B642870
:1012800001D903207BE7B94808380068C0F3404023
:101290000028F1D1207800F00200022869D1B3487B
:1012A000006800F00C0058B1B048006800F00C0075
:1012B00008281CD1AD48001F006800F48000B0B9B8
:1012C000AA4808380068C0F3400020B1E06801284F
:1012D00001D0012053E7A5480838006820F0F80045
:1012E000216940EAC100A1490839086041E0E0688D
:1012F00028B39E480838006840F001009B4908392F
:101300000860FFF73DF9054606E0FFF739F9401B95
:10131000022801D9032032E7944808380068C0F356
:1013200040000028F1D091480838006820F0F8000B
:10133000216940EAC1008D490839086019E08B48ED
:101340000838006820F00100884908390860FFF774
:1013500017F9054606E0FFF713F9401B022801D9EB
:1013600003200CE7814808380068C0F340000028DB
:10137000F1D1207800F00800082836D16069D0B19A
:101380007A486C30006840F0010078496C310860A0
:10139000FFF7F6F8054606E0FFF7F2F8401B0228D3
:1013A00001D90320EBE671486C300068C0F34000BF
:1013B0000028F1D019E06D486C30006820F0010081
:1013C0006A496C310860FFF7DBF8054606E0FFF775
:1013D000D7F8401B022801D90320D0E663486C30BF
:1013E0000068C0F340000028F1D1207800F004002C
:1013F000042874D15D483830006800F0805080B90E
:1014000000BF5A483830006840F0805057493831A2
:1014100008600846006800F08050009000BF00BFE0
:1014200001265348006800F48070B0B95048006845
:1014300040F480704E490860FFF7A2F8054606E0C8
:10144000FFF79EF8401B642801D9032097E648481F
:10145000006800F480700028F2D000BFA068012866
:1014600008D142486830006840F001003F496831C7
:1014700008602DE0A06868B93C486830006820F03A
:1014800001003A49683108600846006820F004000D
:1014900008601DE0A06805280DD134486830006858
:1014A00040F004003149683108600846006840F0A7
:1014B000010008600CE02D486830006820F0010051
:1014C0002A49683108600846006820F00400086076
:1014D00000BFA068A8B1FFF753F8054609E02EE069
:1014E000FFF74EF8401B41F28831884201D90320B2
:1014F00045E61E4868300068C0F340000028EFD081
:1015000013E0FFF73DF8054608E0FFF739F8401B08
:1015100041F28831884201D9032030E6134868300F
:101520000068C0F340000028EFD1012E07D10F481A
:101530003830006820F080500C4938310860A069CC
:10154000F0B30A48006800F00C00082868D0A069D1
:1015500002284DD105480838006820F08070034902
:1015600008390860FFF70CF805460AE00838024021
:1015700000700040FFF704F8401B022801D9032047
:10158000FDE529480068C0F340600028F2D1D4E9A5
:1015900007010843616A40EA81110122A06AC2EB97
:1015A000500041EA00412C20005D41EA00613020FA
:1015B000005D41EA00701C49091D0860081F00E039
:1015C00030E0006840F08070091F0860FEF7D8FF27
:1015D000054606E0FEF7D4FF401B022801D9032090
:1015E000CDE511480068C0F340600028F2D019E052
:1015F0000D48006820F080700B490860FEF7C0FFBE
:10160000054606E0FEF7BCFF401B022801D9032077
:10161000B5E505480068C0F340600028F2D101E05C
:101620000120ACE50020AAE50038024070B5044670
:101630002546681EB0F1807F01D301200FE0681EAF
:101640004FF0E02148610F214FF0FF3000F088FC9F
:1016500000204FF0E021886107200861002070BD64
:1016600010B504460CB9012010BDA06900B100E01E
:1016700000BF606F28B9002084F87000204600F099
:1016800029F8242060672068006820F001002168A4
:101690000860204600F054FA012800D1E4E7606AAF
:1016A00010B1204600F0ACF92068406820F490406A
:1016B000216848602068806820F02A0021688860DE
:1016C0002068006840F0010021680860204600F0B2
:1016D00013FAC9E710B586B00446142101A8FEF735
:1016E000DFFD1949206888422CD100BF17480068E7
:1016F00040F48020154908600846006800F4802006
:10170000009000BF00BF00BF10481038006840F0D4
:1017100008000E49103908600846006800F008000B
:10172000009000BF00BF4FF4407001900220029073
:1017300000200390032004900720059001A904488D
:10174000FEF702FE06B010BD0048004040380240DF
:10175000000C024000BFFEE700B587B0142102A8CC
:10176000FEF79EFD00BF3D48006840F004003B4985
:1017700008600846006800F00400019000BF00BF48
:1017800000BF0846006840F0800008600846006816
:1017900000F08000019000BF00BF00BF0846006855
:1017A00040F0020008600846006800F00200019066
:1017B00000BF00BF00BF0846006840F00800086096
:1017C0000846006800F00800019000BF00BF00BF9D
:1017D0000846006840F0010008600846006800F014
:1017E0000100019000BF00BF00BF0846006840F044
:1017F000400008600846006800F04000019000BF0B
:1018000000BF00224FF481411548FEF7B2FE4FF4AD
:101810000050029000200390049002A91148FEF7A6
:1018200093FD4FF48140029001200390002004902A
:10183000059002A90A48FEF787FD4FF42050029058
:101840000220039000200490032005900B200690B6
:1018500002A90548FEF778FD07B000BD3038024008
:1018600000040240000802400018024010B50D4874
:101870000D4908604FF4E130486000210A4881605A
:10188000C16001610C21416100218161C16101627E
:101890000020054948620846FFF7E2FE08B1FEF75E
:1018A0003EFD10BD004800401000002000BFFEE7D4
:1018B00070477047704710B5FEF768FE10BD000016
:1018C00000B5B7B034212AA8FEF7EAFC142125A8F8
:1018D000FEF7E6FC902101A8FEF7E2FCFEF74EFFC2
:1018E00000BF2B48006840F0805029490860084636
:1018F000006800F08050009000BF00BF00BF254886
:10190000006840F44040234908600846006800F43D
:101910004040009000BF00BF01202A904FF4A0205B
:101920002B900220309041052AA8C1610421016258
:10193000D8214162022181620921C162FFF71AFCAC
:1019400008B1FEF7ECFCFEF7D1FE08B1FEF7E7FCAC
:101950000F20259002202690002027904FF4A050C1
:1019600028904FF480502990072125A8FFF7BCFA52
:1019700008B1FEF7D4FC0848019000201490209094
:1019800001A8FEF705FF08B1FEF7C9FC37B000BD9E
:1019900040380240007000400001200014480068F8
:1019A00040F47000124908601248006840F00100DD
:1019B0001049086000200F49083108600D48006890
:1019C0000D4908400B4908600C48091D0860081FB4
:1019D000006820F48020091F0860002005490C31B0
:1019E00008604FF0006002498039086070470000CD
:1019F00088ED00E000380240FFFFF6FE10300024C2
:101A000090F8241001F0010139B10168496821F40E
:101A10000031826A11430268516090F8241001F08D
:101A20000201022907D10168496821F48031C26AA4
:101A300011430268516090F8241001F00401042958
:101A400007D10168496821F48021026B11430268C3
:101A5000516090F8241001F00801082907D10168AD
:101A6000496821F40041426B11430268516090F8CB
:101A7000241001F01001102907D10168896821F4B0
:101A80008051826B11430268916090F8241001F03C
:101A90002001202907D10168896821F40051C26B17
:101AA00011430268916090F8241001F04001402930
:101AB00013D10168496821F48011026C1143026856
:101AC0005160016CB1F5801F07D10168496821F4AC
:101AD000C001426C11430268516090F8241001F07B
:101AE0008001802907D10168496821F40021826CB6
:101AF000114302685160704738B504460020E06722
:101B0000FEF73EFD05462068006800F00800082842
:101B10000CD16FF07E402B4600224FF40011009054
:101B2000204600F0DFF908B1032038BD20206067AF
:101B3000A06700BF002084F8700000BF00BFF4E77A
:101B40002DE9F04704460026B1462169A068084304
:101B500061690843E16940EA010720680068D549E6
:101B600008403843216808602068406820F44050ED
:101B7000E168084321684860A769206A0743206834
:101B8000806820F4306038432168886000BFCA490B
:101B90002068884216D1C948006800F0030030B1BF
:101BA000012808D0022804D0032808D105E0012527
:101BB00007E0022505E0042503E0082501E01025E3
:101BC00000BFC9E0BE492068884216D1BB48006802
:101BD00000F00C0030B1042808D0082804D00C28EC
:101BE00008D105E0002507E0022505E0042503E013
:101BF000082501E0102500BFAEE0B2492068884208
:101C000016D1AE48006800F0300030B1102808D07E
:101C1000202804D0302808D105E0002507E002255F
:101C200005E0042503E0082501E0102500BF93E04E
:101C3000A5492068884216D1A048006800F0C0007D
:101C400030B1402808D0802804D0C02808D105E051
:101C5000002507E0022505E0042503E0082501E052
:101C6000102500BF78E099492068884219D193482F
:101C7000006800F4407048B1B0F5807F0AD0B0F53C
:101C8000007F05D0B0F5407F08D105E0002507E0D2
:101C9000022505E0042503E0082501E0102500BF2A
:101CA0005AE08B492068884219D18448006800F4C2
:101CB000406048B1B0F5806F0AD0B0F5006F05D034
:101CC000B0F5406F08D105E0012507E0022505E0E9
:101CD000042503E0082501E0102500BF3CE07D4914
:101CE0002068884219D17548006800F4405048B116
:101CF000B0F5805F0AD0B0F5005F05D0B0F5405F69
:101D000008D105E0002507E0022505E0042503E0F1
:101D1000082501E0102500BF1EE06F4920688842B9
:101D200019D16648006800F4404048B1B0F5804FD2
:101D30000AD0B0F5004F05D0B0F5404F08D105E00E
:101D4000002507E0022505E0042503E0082501E061
:101D5000102500BF00E0102500BFE069B0F5004F7E
:101D600057D1042D28D005DC4DB1012D11D0022D05
:101D700036D118E0082D29D0102D31D131E0FFF7F0
:101D800081F94000616800EB5100B0FBF1F086B2D0
:101D90002AE0FFF787F94000616800EB5100B0FBD3
:101DA000F1F086B220E04D49606801EB50006168B7
:101DB000B0FBF1F086B217E0FFF784F940006168EC
:101DC00000EB5100B0FBF1F086B20DE04FF4803132
:101DD000606801EB50006168B0FBF1F086B203E08F
:101DE00000BF4FF0010900BF00BF102E0ED3B6F5A3
:101DF000803F0BD24FF6F07006EA0008C6F34200AF
:101E000048EA00082068C0F80C804DE04FF0010956
:101E10004AE0042D26D005DC4DB1012D10D0022D55
:101E200033D116E0082D26D0102D2ED12EE0FFF74D
:101E300029F9616800EB5100B0FBF1F086B228E0AF
:101E4000FFF730F9616800EB5100B0FBF1F086B2AA
:101E50001FE02349606801EB50006168B0FBF1F0BE
:101E600086B216E0FFF72EF9616800EB5100B0FB77
:101E7000F1F086B20DE04FF40041606801EB5000D4
:101E80006168B0FBF1F086B203E000BF4FF00109DA
:101E900000BF00BF102E05D3B6F5803F02D22068E8
:101EA000C66001E04FF001090020206660664846E8
:101EB000BDE8F087F369FFEF001001409038024061
:101EC0000044004000480040004C004000500040EA
:101ED0000014014000780040007C00400048E80108
:101EE0000024F4002DE9F04104460D4617469846BB
:101EF000069E1FE0701CE8B1FEF742FBA0EB080055
:101F0000B04200D8B6B92068006820F4D0702168CB
:101F100008602068806820F0010021688860202027
:101F20006067A06700BF002084F8700000BF032036
:101F3000BDE8F0812068C0692840A84201D1012095
:101F400000E00020B842D5D00020F1E700BFFEE756
:101F500002480068C0F30220704700000CED00E06A
:101F600010B5002804DB0A07130E054A135406E0D7
:101F70000A07140E034A00F00F031B1FD45410BDB0
:101F800000E400E018ED00E002E008C8121F08C1FC
:101F9000002AFAD170477047002001E001C1121FEA
:101FA000002AFBD17047000000BF0B480B490860B6
:101FB000FEF7F8FAFFF784FCFFF7CEFBFFF756FCBD
:101FC00008E04FF480410648FEF7CAFA4FF4FA7071
:101FD000FEF7A6F9F5E700000000010808ED00E0B3
:101FE00000040240000000000000000001020304A1
:101FF0000607080900000000010203041C20010874
:102000000000002010000000881F01082C2001089B
:102010001000002080040000981F0108000000004C
:0C20200010000000010000000024F4008B
:04000005080101F9F4
:00000001FF
