:020000040800F2
:10000000F85F05200D020008892E0008A12C0008C9
:10001000852E000893030008B95500080000000071
:100020000000000000000000000000006131000836
:1000300045040008000000005F310008633100083B
:1000400027020008270200082702000827020008EC
:1000500027020008270200082702000827020008DC
:1000600027020008270200082702000827020008CC
:1000700027020008270200082702000827020008BC
:1000800027020008270200082702000827020008AC
:10009000270200082702000827020008270200089C
:1000A000270200082702000827020008270200088C
:1000B000270200082702000827020008270200087C
:1000C000270200082702000827020008270200086C
:1000D000270200082702000827020008270200085C
:1000E000270200082702000827020008270200084C
:1000F000270200082702000827020008270200083C
:10010000270200082702000827020008270200082B
:10011000270200082702000827020008270200081B
:10012000270200082702000827020008270200080B
:1001300027020008270200082702000827020008FB
:100140002702000827020008270200088D2E000859
:1001500027020008270200082702000827020008DB
:1001600027020008270200082702000827020008CB
:1001700027020008270200082702000800000000EC
:1001800027020008270200082702000827020008AB
:10019000270200082702000827020008270200089B
:1001A000270200082702000827020008270200088B
:1001B000270200082702000827020008270200087B
:1001C000270200082702000800000000270200089C
:1001D000270200082702000827020008270200085B
:1001E000270200082702000827020008270200084B
:1001F0002702000827020008DFF80CD000F08CF876
:1002000000480047AD620008F85F052006488047B7
:1002100006480047FEE7FEE7FEE7FEE7FEE7FEE7EB
:10022000FEE7FEE7FEE7FEE751320008F9010008AD
:100230002DE9F05F0546002092469B46884606461B
:10024000814640241BE0284641464746224600F0AE
:1002500053F853465A46C01A914110D311461846D6
:10026000224600F03AF82D1A67EB01084F46224665
:100270000120002100F031F817EB00094E41201E4B
:10028000A4F10104DFDC484631462A464346BDE876
:10029000F09F40EA01039B0703D009E008C9121F41
:1002A00008C0042AFAD203E011F8013B00F8013B30
:1002B000521EF9D27047D2B201E000F8012B491E5C
:1002C000FBD270470022F6E710B513460A460446F3
:1002D0001946FFF7F0FF204610BD202A04DB203A24
:1002E00000FA02F1002070479140C2F1200320FA89
:1002F00003F3194390407047202A04DB203A21FA87
:1003000002F00021704721FA02F3D040C2F120022E
:100310009140084319467047064C074D06E0E068D7
:1003200040F0010394E8070098471034AC42F6D33C
:10033000FFF766FFC4630008E463000870B58C181B
:1003400010F8015B15F0070301D110F8013B2A11E9
:1003500006D110F8012B03E010F8016B01F8016BD6
:100360005B1EF9D12B0705D40023521E0DD401F8D2
:10037000013BFAE710F8013BCB1A921C03E013F89B
:10038000015B01F8015B521EF9D5A142D8D30020D0
:1003900070BD00BFFEE770B502464FF6FF70002447
:1003A00013E012F8015B684000230AE000F0010549
:1003B00025B140084AF20105684000E040085D1C94
:1003C000EBB2082BF2DB651CECB28C42E9DB70BDB2
:1003D000F0B504460027002600256578A81EC1B2A6
:1003E0002046FFF7D8FF87B2681E265CA81E205C57
:1003F00000EB062086B2B74201D10020F0BD0120FB
:10040000FCE70020704700207047000030B503462D
:100410000C460948D0F81822002109E0505C074D2D
:10042000685407480078401C054D2870481CC1B22C
:100430004029F3DB002030BDD0010020380A002025
:10044000940000207047704710B5002201B909E000
:10045000012901D10A0205E0022901D10A0201E0C5
:100460004FF440720B2800D9001D124B1B6823F477
:100470004073104C236023461B68134323602346BC
:100480001B6823F0F803236023461B68022444EA18
:10049000C0042343074C236023461B6843F4803386
:1004A000236000BF00BF00BFBFF34F8F00BF00BF7E
:1004B00000BF10BD103C0240174A126822F440727F
:1004C000154B1A60032906D11A461268DB131A432A
:1004D000114B1A600EE0022906D10F4A126842F44D
:1004E00000420D4B1A6005E00B4A126842F004020C
:1004F000094B1A60084A12684FF4803343EA00231C
:100500001A43054B1A6000BF00BF00BFBFF34F8FF7
:1005100000BF00BF00BF7047103C02400B4A12688A
:1005200022F44072094B1A601A4612681A601A4681
:10053000126842F001021A60017000BF00BF00BFE4
:10054000BFF34F8F00BF00BF00BF7047103C024099
:1005500010B50D49096821F440710B4C216021460A
:10056000096841F4407121602146096841F00101A8
:1005700021600260436000BF00BF00BFBFF34F8F28
:1005800000BF00BF00BF10BD103C02400C4A126803
:1005900022F440720A4B1A601A46126842F48072C2
:1005A0001A601A46126842F001021A60018000BF08
:1005B00000BF00BFBFF34F8F00BF00BF00BF704739
:1005C000103C02400C4A126822F440720A4B1A6036
:1005D0001A46126842F400721A601A46126842F013
:1005E00001021A60016000BF00BF00BFBFF34F8F60
:1005F00000BF00BF00BF7047103C02401D480068AC
:1006000000F0020028B11C48806940F020001A491F
:1006100088611848006800F0100028B11648806909
:1006200040F01000144988611248006800F0200072
:1006300028B11148806940F008000F4988610D48D1
:10064000006800F0400028B10B48806940F00400C9
:10065000094988610748006800F0800028B1064811
:10066000806940F0020004498861F2200149086075
:10067000704700000C3C0240D859052070B5044674
:10068000002500201449886100F060FA054609E061
:10069000601C38B124B100F059FA401BA04201D9C6
:1006A000032070BD0D48006800F480300028EFD1B1
:1006B0000A48006800F0F20018B1FFF79FFF012020
:1006C000EFE70648006800F0010010B1012003497F
:1006D00008600020E5E70000D85905200C3C0240E6
:1006E00070B50A480468001D0568001D066834449A
:1006F00054B108220649204602F0D4FA04220449E3
:100700001031284602F0CEFA70BD000020F4F01F30
:100710004600002010B54FF0FF300E490860002061
:100720000860401E091D086000200860401E09493D
:100730001039086000200860401E091D0860002074
:100740000860401E091D08600020086000F042FAA1
:10075000002010BD2038024070B5044600F0F6F9C4
:1007600006462546681C10B104480078054400BFC1
:1007700000F0ECF9801BA842FAD370BDBC00002049
:100780002DE9F04104460E460127002500BF25480B
:10079000007D012802D10220BDE8F081012021491D
:1007A000087500BF4CF25030FFF768FF0746002F76
:1007B00030D1401E30602068012810D1207C616853
:1007C000FFF77AFE4CF25030FFF758FF0746164805
:1007D000006848F204018843134908601AE0A568DC
:1007E00012E0217C2846FFF72FFE4CF25030FFF735
:1007F00045FF07460C48006820F0FA000A490860E7
:100800000FB1356005E06D1CD4E902100844A84220
:10081000E7D800BF00BF00200249087500BF384676
:10082000BAE70000D8590520103C02400348006890
:1008300040F000400149086000207047103C024031
:100840002DE9F04106460F4614461D464FF00108BB
:1008500000BF2248007D012802D10220BDE8F081BE
:1008600001201E49087500BF4CF25030FFF706FF0B
:100870008046B8F1000F29D136B1012E09D0022EE1
:100880000CD0032E15D10EE0E1B23846FFF746FE3C
:1008900010E0A1B23846FFF779FE0BE0214638465A
:1008A000FFF790FE06E022462B463846FFF750FE43
:1008B00000E000BF00BF4CF25030FFF7DFFE804683
:1008C0000748006820F001000549086000BF0020CB
:1008D0000249087500BF4046C0E70000D85905200E
:1008E000103C024000200949096801F0004159B15B
:1008F0000749064A0C3A1160064911600349096824
:1009000001F0004101B1012070470000103C02409D
:1009100023016745AB89EFCDF8B502460B460021B0
:1009200000250024002000BFE4E0012606FA01F5BE
:100930001E6806EA0504AC4271D15E68022E02D040
:100940005E68122E13D1CF0802F1200656F8270058
:100950004E07F70E0F26BE40B0434F07FF0E1E692D
:10096000BE403043CF0802F1200646F82700106849
:100970004F000326BE40B0431E7906F003064F0029
:10098000BE40304310605E68012E08D05E68022EC3
:1009900005D05E68112E02D05E68122E13D19068C9
:1009A0004F000326BE40B0434F00DE68BE403043D8
:1009B0009060506801268E40B0431E79C6F3001641
:1009C0008E4030435060D0684F000326BE40B04395
:1009D0004F009E68BE403043D0605E6806F080568F
:1009E000B6F1805FA8D100BF444E366846F4804619
:1009F000424F3E603E46366806F48046009600BF91
:100A000000BF3F4E8F0856F827008E07370F0F267E
:100A1000BE40B0433B4EB24202D100262EE068E019
:100A2000394EB24201D1012628E0384EB24201D1FE
:100A3000022623E0364EB24201D103261EE0354E97
:100A4000B24201D1042619E0334EB24201D105264B
:100A500014E0324EB24201D106260FE0304EB242CF
:100A600001D107260AE02F4EB24201D1082605E047
:100A70002D4EB24201D1092600E00A268F073F0F12
:100A8000BE4030431E4E8F0846F82700274E306880
:100A9000A0435E6806F48036B6F5803F00D120435F
:100AA000224E3060361D3068A0435E6806F4003682
:100AB000B6F5003F00D120431C4E361D3060361D78
:100AC0003068A0435E6806F48016B6F5801F00D13A
:100AD0002043164E08363060361D3068A0435E68ED
:100AE00006F40016B6F5001F00D120430F4E0C3659
:100AF0003060491C1029FFF418AFF8BD443802409B
:100B00000838014000000240000402400008024092
:100B1000000C024000100240001402400018024085
:100B2000001C02400020024000240240003C014022
:100B3000024613690B400BB1012000E00020704712
:100B40000AB1816101E00B048361704701480068CC
:100B500070470000B400002003480068034909788A
:100B60000844014908607047B4000020BC00002020
:100B700010B5032000F0C0F8002000F005F800F0E8
:100B80002BF8002010BD000070B504460E48007818
:100B90004FF47A71B1FBF0F00C490968B1FBF0F544
:100BA000284601F081FF08B1012070BD102C07D24A
:100BB00000222146501E00F061F80548046001E063
:100BC0000120F2E70020F0E7BC000020C000002078
:100BD000B80000207047000008B500BF0D4800684D
:100BE00040F080500B4908600846006800F08050D3
:100BF000009000BF00BF00BF081D006840F48040A7
:100C0000091D08600846006800F48040009000BF9D
:100C100000BF08BD4038024010B501460846002814
:100C200017DB00F01F0301229A400B4B440943F8E5
:100C3000242000BF00BF00BFBFF34F8F00BF00BF25
:100C400000BF00BF00BF00BFBFF36F8F00BF00BF7A
:100C500000BF00BF10BD000080E100E00146084673
:100C6000002809DB00F01F0301229A4043099B0082
:100C700003F1E023C3F8002100BF70472DE9F05FC6
:100C800080460D461646002704F0A8FC0746394664
:100C90002A46334601F00700C0F1070ABAF1040FF3
:100CA00002D94FF0040A01E0C0F1070AD14600F171
:100CB000040ABAF1070F02D24FF0000A01E0A0F1D6
:100CC000030AD4464FF0010A0AFA09FAAAF1010A06
:100CD0000AEA020A0AFA0CFA4FF0010B0BFA0CFBB3
:100CE000ABF1010B0BEA030B4AEA0B042146404629
:100CF00004F07CFCBDE8F09F00BF00F00702064B4B
:100D000019684FF6FF031940044B0B4343EA0221D5
:100D1000014B196000BF70470CED00E00000FA05C0
:100D200001460A680120C1F8FC03002081F8F403A1
:100D3000906940F000609061506D024B184350651F
:100D4000002070470300001070B504460D4615B131
:100D5000012D2CD116E0206A38B102F006FA1548B0
:100D6000006820F00600134908602068D0F8000EE3
:100D700020F001002168C1F8000ED4F8000403F04F
:100D80007BFA14E02068D0F8000E40F001002168E2
:100D9000C1F8000ED4F8000403F0F6FA206A28B176
:100DA0000448006840F006000249086000BF00BF28
:100DB00070BD000010ED00E00246106841620020A6
:100DC0007047F0B5034615461868446A21B944EAED
:100DD00005401E68B06219E01868806A04EB104490
:100DE000002208E0186800F5827050F8220004EB39
:100DF0001044501CC2B2481E9042F3D844EA054742
:100E0000186800F582704E1E40F826700020F0BD74
:100E100010B50446D4F8000403F075F910BD70B5A0
:100E200004460D46C5EBC50304F13C0101EB83010B
:100E3000CA682946D4F8000403F0B5F870BD70B54F
:100E400004460D46C5EBC50304F5FE7101EB8301B5
:100E5000CA682946D4F8000403F012F970BD10B531
:100E60000446D4F8000403F051F910BD70B50446EF
:100E70000E4606F0800080280AD106F00F00C0EB75
:100E8000C00104F13C0000EB81050120687009E01D
:100E900006F00F00C0EBC00104F5FE7000EB810509
:100EA0000020687006F00F00287000BF94F8BC03A3
:100EB000012801D1022070BD012084F8BC0300BFCD
:100EC0002946206803F05CFD00BF002084F8BC03C5
:100ED00000BF00BFEFE770B504460E4606F00F00F6
:100EE0006168884201D9012070BD06F08000802829
:100EF0000AD106F00F00C0EBC00104F13C0000EB8A
:100F000081050120687009E006F00F00C0EBC00108
:100F100004F5FE7000EB8105002068700020A870C9
:100F200006F00F00287000BF94F8BC03012801D11F
:100F30000220D9E7012084F8BC0300BF29462068BD
:100F400003F0C4FF00BF002084F8BC0300BF00BF53
:100F5000CAE72DE9F04705460E4690461F464FF07A
:100F6000000906F0800080280AD106F00F00C0EBCF
:100F7000C00105F13C0000EB81040120607009E034
:100F800006F00F00C0EBC00105F5FE7000EB810418
:100F90000020607006F00F002070C4F80880E77031
:100FA000607808B12078E080022F01D10020207104
:100FB00000BF95F8BC03012802D10220BDE8F087EC
:100FC000012085F8BC0300BF2146286803F0EAFB36
:100FD00000BF002085F8BC0300BF4846EEE72DE9BE
:100FE000F04104460E461746984606F00F00C0EB47
:100FF000C00104F5FE7000EB8105EF60C5F81480B8
:101000000020A861687006F00F0028702069012890
:1010100000D12F6106F00F0028B9227C29462068F4
:1010200003F03CFE04E0227C2946206803F0E2FF46
:101030000020BDE8F08170B504460D4605F00F00B4
:101040006168884201D9012070BD05F080008028C8
:101050000AD105F00F00C0EBC00104F13C0000EB29
:1010600081060120707007E0C5EBC50104F5FE7034
:1010700000EB8106002070700120B07005F00F00B9
:10108000307000BF94F8BC03012801D10220DBE7D7
:10109000012084F8BC0300BF3146206803F05DFFE7
:1010A00005F00F0028B9217C04F57172206803F067
:1010B000D5FE00BF002084F8BC0300BF00BFC3E71B
:1010C0002DE9F04104460E461746984606F00F00FB
:1010D000C0EBC00104F13C0000EB8105EF60C5F8F6
:1010E00014800020A8610120687006F00F002870AD
:1010F0002069012800D12F6106F00F0028B9227C59
:101100002946206803F0CAFD04E0227C29462068B5
:1011100003F070FF0020BDE8F0812DE9FE4F04468A
:1011200020680290029D0026206804F024F900281F
:101130007DD1206804F05EF908B9BDE8FE8F206813
:1011400004F058F900F00200022805D12068406937
:1011500000F0020021684861206804F04BF900F4B7
:101160000020B0F5002F58D10026206804F012F9B5
:1011700082464FE00AF00100002848D0F1B2206812
:1011800004F02BF9804608F0010048B1012105F573
:10119000306000EB461081603146204601F0C4FE0D
:1011A00008F00800082809D13146204601F076FEF3
:1011B000082105F5306000EB4610816008F0100052
:1011C000102805D1102105F5306000EB4610816034
:1011D00008F0200020280ED12069012805D104F54F
:1011E00071720121206803F039FE202105F530607D
:1011F00000EB4610816008F40050B0F5005F06D1A6
:101200004FF4005105F5306000EB46108160761C0C
:101210004FEA5A0ABAF1000FACD1206804F0EAF89C
:1012200000F48020B0F5802F7CD1206800E037E208
:1012300004F0A6F88246002686E00AF001000028A5
:101240007FD0F1B2206804F0AFF8804608F00100CA
:10125000E8B306F00F0101208840019040F6340009
:101260004159019821EA000040F63401485101211A
:1012700005F5106000EB461081602069012815D14A
:10128000C6EBC60104F13C0000EB8100C6EBC602D0
:10129000C16804F13C0000EB820080680144C6EBA9
:1012A000C60204F13C0000EB8200C160F1B22046AE
:1012B000FFF7B5FD2069012810D146B9C6EBC6017C
:1012C00004F13C0000EB8100406900B900E005E05A
:1012D00004F571720121206803F0C0FD08F00800D8
:1012E000082805D1082105F5106000EB4610816043
:1012F00008F01000102805D1102105F5106000EB52
:101300004610816008F04000402805D1402105F5D5
:10131000106000EB4610816008F00200022808D13E
:10132000022101E014E00CE005F5106000EB46102E
:10133000816008F08000802803D13146204601F00A
:10134000B3FE761C4FEA5A0ABAF1000F7FF475AF6C
:10135000206804F04FF800F00040B0F1004F1CD1BD
:1013600040F60400405920F0010140F604004151CC
:1013700094F8F403012807D1002084F8F403002135
:101380002046FFF7E1FC02E0204600F0BDFA2068AD
:10139000406900F0004021684861206804F02AF8A4
:1013A00000F40060B0F5006F0ED140F6080040591F
:1013B00000F0010010B1204600F0F2FA2068406908
:1013C00000F4006021684861206804F013F800F020
:1013D0000060B0F1006F19D12068406900F0006032
:1013E0002168486194F8F40368B9012084F8F40393
:1013F0002068406DC0F38300C4F8F8030121204643
:10140000FFF7A2FC02E0204600F0CAFA206803F0D1
:10141000F1FF00F48050B0F5805F72D140F6040017
:10142000405920F0010140F604004151102120688C
:1014300003F076FF002726E04FF67F3105F51060B8
:1014400000EB4710816005F5106000EB4710006865
:1014500020F4001105F5106000EB471001604FF615
:101460007F3105F5306000EB4710816005F5306095
:1014700000EB4710006820F4001105F5306000EB28
:10148000471001607F1C6068B842D5D840F61C0048
:10149000405940F0011140F61C004151206B70B1E1
:1014A000D5F8840840F00B01C5F8841840F64400D4
:1014B000405940F00B0140F6440041510FE040F626
:1014C0001400405942F22B01084340F614014851E0
:1014D000081F405940F00B014FF401604151D5F80D
:1014E000000820F4FE60C5F80008217C04F5717244
:1014F000206803F0B3FC2068406900F48050216844
:101500004861206803F076FF00F40050B0F5005FFA
:101510001CD1206803F0AEF9206803F019FF10B960
:101520000021E16001E00321E16000F0E3FF0090B1
:10153000227B2068009903F0ADFF204600F0CCF933
:101540002068406900F4005021684861206803F079
:1015500051FF00F01000102846D12068806920F06B
:101560001000216888610298D0F8209009F00F00DF
:10157000C0EBC00104F5FE7000EB810BC9F34340E2
:1015800002281AD147F6F07009EA000030B3C9F317
:101590000A12DBF80C10029803F031FFC9F30A11AC
:1015A000DBF80C000844CBF80C00C9F30A11DBF897
:1015B00018000844CBF8180010E0C9F3434006288F
:1015C0000CD1082204F57171029803F018FFC9F3D9
:1015D0000A11DBF818000844CBF81800206880696D
:1015E00040F0100021688861206803F003FF00F0DC
:1015F0000800082808D1204600F08DF920684069CD
:1016000000F0080021684861206803F0F3FE00F450
:101610008010B0F5801F09D1F1B2204600F042F8E9
:101620002068406900F4801021684861206803F058
:10163000E1FE00F40010B0F5001F09D1F1B2204620
:1016400000F039F82068406900F400102168486112
:10165000206803F0CFFE00F08040B0F1804F08D149
:101660002046FFF7D5FB2068406900F080402168E4
:101670004861206803F0BEFE00F0040004280FD18A
:101680002068D0F8049009F00400042802D1204614
:10169000FFF7E5FB2068406840EA090021684860E0
:1016A00000BF4AE570B504460D462946D4F800044B
:1016B00002F08AFD70BD70B504460D462946D4F887
:1016C000000402F084FD70BD30B58BB0044614B93F
:1016D00001200BB030BD94F8BD0328B9002084F878
:1016E000BC03204600F0A2F8032084F8BD03206864
:1016F00003F0CCFA282204F110016846FEF7C9FD78
:1017000094E80F0003F0DAF820B1022084F8BD035A
:101710000120DEE70021206803F082FE002531E091
:101720000121C5EBC50204F13C0000EB82004170D1
:10173000C5EBC50104F13C0000F82150C5EBC50123
:1017400000EB8100C5800021C5EBC50204F13C001F
:1017500000EB8200C170C5EBC50204F13C0000EB58
:1017600082008160C5EBC50204F13C0000EB820001
:10177000C160C5EBC50204F13C0000EB8200416191
:10178000681CC5B26068A842CAD800252AE00021BA
:10179000C5EBC50204F5FE7000EB82004170C5EB9D
:1017A000C50104F5FE7000F821500021C5EBC5020B
:1017B00000EB8200C170C5EBC50204F5FE7000EBC2
:1017C00082008160C5EBC50204F5FE7000EB82006B
:1017D000C160C5EBC50204F5FE7000EB82004161FB
:1017E000681CC5B26068A842D1D8282204F1100153
:1017F0006846FEF74EFD94E80F0003F043F920B170
:10180000022084F8BD03012063E7002084F838003B
:10181000012084F8BD03606A012802D12046FFF749
:101820007FFA206803F01EF9002052E710B588B057
:101830000446142103A8FEF745FD2068B0F1A04F2F
:1018400044D100BF2248006840F0010020490860F0
:101850000846006800F00100029000BF00BF4FF48E
:10186000C0500390022004900020059003200690B1
:101870000A20079003A91748FFF74EF800BF144845
:10188000001D006840F080001149091D08600846ED
:10189000006800F08000029000BF00BF0C481430C8
:1018A000006840F480400A49143108600846006826
:1018B00000F48040019000BF00BF00BF00220F2154
:1018C0004320FFF7DBF94320FFF7C8F908B010BD4C
:1018D000303802400000024070B504460125E0683F
:1018E00008B9002506E0E068022801D1012501E0E1
:1018F000FEF7A9FD2946D4F8000402F0D5FCD4F87F
:10190000000402F097FC70BD10B50446D4F8000442
:1019100002F0B2FC10BD10B50446D4F8000402F089
:10192000B2FC10BD70B504460D4600BF94F8BC0370
:10193000012801D1022070BD012084F8BC0300BF42
:1019400084F838502946206803F085FD00BF002048
:1019500084F8BC0300BF00BFEDE710B5044604F5F2
:101960007171D4F8000402F0B6FC10BD10B5044645
:1019700000BF94F8BC03012801D1022010BD012052
:1019800084F8BC0300BF206803F05CF8206803F013
:10199000A9FC00BF002084F8BC0300BF00BFEDE736
:1019A00010B50446D4F8000402F0EEFC2068D0F82C
:1019B000000E40F001002168C1F8000E206A28B135
:1019C0000348006840F006000149086010BD0000AF
:1019D00010ED00E038B5002400BF2048006840F05A
:1019E00080501E4908600846006800F08050009052
:1019F00000BF00BF1A48006840F4803018490860F2
:101A0000FFF7A4F8044607E0FFF7A0F8001BB0F5C5
:101A10007A7F01D9032038BD1148406800F4803036
:101A2000B0F5803FF0D10E48006840F400300C491A
:101A30000860FFF78BF8044607E0FFF787F8001B04
:101A4000B0F57A7F01D90320E5E70548406800F446
:101A50000030B0F5003FF0D10020DCE74038024014
:101A6000007000400348006840F48070014908603D
:101A700070470000007000402DE9F843044600263E
:101A800000250027A846A946207800F0010088B16B
:101A900000BFFE48006820F40000FC4908600846CA
:101AA0000068616B0843F949086000BF606B08B9C2
:101AB0004FF00108206800F40020B0F5002F13D18A
:101AC000F2488430006820F44010E16B0843EF498D
:101AD00084310860E06BB0F5801F01D14FF0010840
:101AE000E06B08B94FF00109206800F48010B0F5F0
:101AF000801F13D1E5488430006820F44000216C39
:101B00000843E24984310860206CB0F5800F01D1B0
:101B10004FF00108206C08B94FF00109206800F06F
:101B20008070B0F1807F01D14FF00108207800F083
:101B30002000202870D100BFD4483830006840F021
:101B40008050D249383108600846006800F0805063
:101B5000009000BF00BFCE48006840F48070CC49C0
:101B60000860FEF7F3FF064607E0FEF7EFFF801B75
:101B7000642802D90320BDE8F883C548006800F452
:101B800080700028F1D0C1486830006800F44075CA
:101B900085B3208E00F44070A8422BD0BB4868303B
:101BA000006820F44075B9486830006840F480301F
:101BB000B649683108600846006820F48030086043
:101BC00008460560006800F0010098B1FEF7BEFF0E
:101BD000064608E0FEF7BAFF801B41F288318842D2
:101BE00001D90320C7E7A94868300068C0F3400066
:101BF0000028EFD000BF208E00F44070B0F5407F89
:101C00000BD1A248006820F4F810A24A216B1140C1
:101C100008439E49086006E010E09C48006820F4F4
:101C2000F8109A490860994868300068218EC1F31D
:101C30000B01084395496831086000BF207800F027
:101C40001000102810D100BF90488430006820F0A8
:101C500080708E498431086008460068A16B084393
:101C60008A498431086000BF208800F48040B0F5C4
:101C7000804F09D185488830006820F44030616E7B
:101C80000843824988310860208800F40040B0F59C
:101C9000004F09D17D488830006820F44020A16EB3
:101CA00008437A4988310860206800F48030B0F534
:101CB000803F09D175488830006820F44010E16EFB
:101CC0000843724988310860206800F40030B0F59C
:101CD000003F09D16D488830006820F44000216F32
:101CE00008436A4988310860207800F040004028A5
:101CF00009D166488830006820F00300616C084311
:101D0000624988310860207800F08000802809D17D
:101D10005E488830006820F00C00A16C08435B49E5
:101D200088310860208800F48070B0F5807F09D188
:101D300056488830006820F03000E16C0843534971
:101D400088310860208800F40070B0F5007F09D168
:101D50004E488830006820F0C000216D08434B4990
:101D600088310860208800F48060B0F5806F09D168
:101D700046488830006820F44070616D084343494C
:101D800088310860208800F40060B0F5006F09D148
:101D90003E488830006820F44060A16D08433B490C
:101DA00088310860208800F48050B0F5805F09D148
:101DB00036488830006820F44050E16D08433349CC
:101DC00088310860208800F40050B0F5005F09D128
:101DD0002E488830006820F44040216E08432B498B
:101DE00088310860206800F48000B0F5800F09D1C8
:101DF00026488830006820F08060A16F084323499E
:101E000088310860206800F40010B0F5001F0FD181
:101E10001E488830006820F00060E16F08431B49CD
:101E200088310860E06FB0F1006F01D14FF0010917
:101E3000207800F00800082801D14FF0010920683F
:101E400000F48020B0F5802F09D110488830006858
:101E500020F04070616F08430C49883108602068A9
:101E600000F40000B0F5000F0AD10848883000687F
:101E700020F08050D4F8801008430449883108606D
:101E8000206800F08060B0F1806F05E00838024003
:101E900000700040FFFCFF0F08D1CC48006820F024
:101EA0000050D4F884100843C8490860206800F046
:101EB0000060B0F1006F0AD1C448001F006820F034
:101EC0000070D4F888100843C049091F08602068D2
:101ED00000F08050B0F1805F0AD1BC48001F00685C
:101EE00020F08060D4F88C100843B849091F0860BE
:101EF000B8F1010F03D02068B0F1007F7ED1B34864
:101F00009038006820F08060B04990390860FEF792
:101F10001DFE064606E0FEF719FE801B642801D967
:101F2000032028E6A94890380068C0F3C060002864
:101F3000F1D1207800F00100B8B1606BA8B9A348D6
:101F40000C380068C0F30145A0480C380068C0F3A5
:101F500003676068800140EA054040EA0761207A33
:101F600041EA007099490C390860206800F40020AB
:101F7000B0F5002F03D1E06BB0F5801F09D02068C9
:101F800000F48010B0F5801F24D1206CB0F5800FD4
:101F900020D18E480C380068C0F301458B480C38BE
:101FA0000068C0F302776068800140EA0541207B49
:101FB00041EA006040EA077084490C3908608348B0
:101FC000001F006820F01F00616A491E08437F4916
:101FD000091F0860206800F08070B0F1807F17D181
:101FE0007A480C380068C0F3036578480C380068FC
:101FF000C0F3027760688101208A00E036E041EAA0
:10200000004040EA056040EA077070490C390860FA
:10201000206800F00070B0F1007F0DD16068810190
:10202000208A41EA0041207B41EA0061207A41EAAE
:10203000007066490C39086064489038006840F0C8
:102040008060624990390860FEF780FD064606E030
:10205000FEF77CFD801B642801D903208BE55B48DB
:1020600090380068C0F3C0600028F1D0B9F1010FCA
:102070007ED156489038006820F0805053499039FE
:102080000860FEF763FD064606E0FEF75FFD801B75
:10209000642801D903206EE54C4890380068C0F3ED
:1020A00040700028F1D1206800F40020B0F5002F26
:1020B00001D1E06B38B1206800F48010B0F5801FCA
:1020C00022D1206C00BB414808380068C0F30145AC
:1020D0003E4808380068C0F302776069800140EA32
:1020E0000541207E41EA006040EA0770374908391F
:1020F0000860081D006820F4F851A06A401E41EAFB
:1021000000203249091F0860206800F40010B0F573
:10211000001F19D1E06FB0F1006F15D12B480838BE
:102120000068C0F30365294808380068C0F30277E7
:1021300060698101208C41EA004040EA056040EA84
:102140000770224908390860207800F00800082844
:1021500020D11E4808380068C0F303651B480838C2
:102160000068C0F301476069800140EA074000E071
:102170002AE040EA0561207F41EA007013490839EE
:102180000860081D006820F44030E16A08430F49E8
:10219000091F08600D489038006840F080500B49D6
:1021A00090390860FEF7D2FC064606E0FEF7CEFC4A
:1021B000801B642801D90320DDE4044890380068BE
:1021C000C0F340700028F1D00020D4E490380240E1
:1021D00070B504460D4600260CB9012070BD5C4860
:1021E000006800F00F00A8420ED25948006820F0A5
:1021F0000F002843564908600846006800F00F00A9
:10220000A84201D00120E9E7207800F0020002286E
:102210001DD1207800F00400042805D14D48006845
:1022200040F4E0504B490860207800F0080008288E
:1022300005D14848006840F4604046490860454878
:10224000006820F0F000A168084342490860207847
:1022500000F0010090B36068012807D13D480838BC
:102260000068C0F34040A0B90120B7E760680228C9
:1022700007D1384808380068C0F3406048B90120E9
:10228000ACE7344808380068C0F3400008B90120C2
:10229000A4E73048006820F00300616808432D4936
:1022A0000860FEF753FC064609E0FEF74FFC801B72
:1022B00041F28831884202D903208FE707E02548A0
:1022C000006800F00C006168B0EB810FEDD1204890
:1022D000006800F00F00A8420ED91D48006820F0E9
:1022E0000F0028431A4908600846006800F00F00F4
:1022F000A84201D0012071E7207800F004000428F2
:1023000007D11448006820F4E050E16808431149FF
:102310000860207800F00800082808D10D480068FF
:1023200020F46040216940EAC1000A49086000F0D9
:1023300007F908490968C1F30311074A515CC8400D
:10234000064908600020FEF71FFC002046E7000059
:10235000003C024008380240AC630008C000002086
:1023600010B5FEF7F3FB04465E48006840F001003C
:102370005C49086006E0FEF7E9FB001B022801D972
:10238000032010BD5748006800F002000028F2D07A
:102390005448006840F0800052490860FEF7D6FBC0
:1023A000044600204F490831086008E0FEF7CEFBE4
:1023B000001B41F28831884201D90320E1E74948F6
:1023C0000830006800F00C000028EFD1FEF7BEFBDB
:1023D00004464448006820F450204249086006E062
:1023E000FEF7B4FB001B642801D90320C9E73D4870
:1023F000006800F400300028F2D1FEF7A7FB044685
:102400003848006820F080703649086006E0FEF722
:102410009DFB001B022801D90320B2E73148006868
:1024200000F000700028F2D1FEF790FB04462D4822
:10243000006820F080602B49086006E0FEF786FB0C
:10244000001B642801D903209BE72648006800F0A0
:1024500000600028F2D1FEF779FB044621480068AD
:1024600020F080501F49086006E0FEF76FFB001B5C
:10247000642801D9032084E71A48006800F000505E
:102480000028F2D118481749091D0860164810386D
:10249000144984310860091D086012480C30006836
:1024A00020F4FE400F490C3108600846006840F4F3
:1024B0007F0008600B487430006820F00100094973
:1024C000743108600846006840F080700860074872
:1024D000074908600020FEF757FB08B1012050E7CC
:1024E00000204EE700380240103000240024F400A1
:1024F000C00000200148006870470000C0000020B4
:1025000000B5FFF7F7FF04490968C1F38221034AC8
:10251000515CC84000BD000008380240BC630008A0
:1025200000B5FFF7E7FF04490968C1F34231034AE8
:10253000515CC84000BD000008380240BC63000880
:102540002DE9F047002400250026A1462548006813
:1025500000F00C0020B1042805D008283AD105E08D
:10256000DFF8849039E0DFF8849036E01D48001FE2
:10257000006800F03F041B48001F006800F4800062
:1025800078B11A481749091F0968C1F38811A0FBDF
:1025900001700146224600233846FDF749FE0546F4
:1025A0000EE011480F49091F0968C1F38811A0FB0B
:1025B00001700146224600233846FDF739FE0546E4
:1025C0000848001F0068C0F30140401C4600B5FBEE
:1025D000F6F902E0DFF8109000BF00BF4846BDE802
:1025E000F0870000083802400024F40000127A004E
:1025F000F8B5044600260CB90120F8BD207800F09B
:102600000100002871D0F848006800F00C00042890
:102610000DD0F548006800F00C00082813D1F248EE
:10262000001F006800F48000B0F5800F0BD1EE4869
:1026300008380068C0F34040002869D0606800286E
:1026400066D10120D9E700BF6068B0F5803F08D1AE
:10265000E5480838006840F48030E34908390860EC
:102660002EE0606868B9E0480838006820F48030DF
:10267000DD49083908600846006820F480200860B9
:102680001EE06068B0F5A02F0DD1D748083800686B
:1026900040F48020D449083908600846006840F4B6
:1026A000803008600CE0D0480838006820F48030A2
:1026B000CD49083908600846006820F48020086089
:1026C00000BF606890B1FEF741FA054606E0FEF7EC
:1026D0003DFA401B642801D903208EE7C248083820
:1026E0000068C0F340400028F1D011E0FEF72EFA58
:1026F000054606E0FEF72AFA401B642801D90320AC
:102700007BE7B94808380068C0F340400028F1D1A1
:10271000207800F00200022869D1B348006800F078
:102720000C0058B1B048006800F00C0008281CD11B
:10273000AD48001F006800F48000B0B9AA4808380E
:102740000068C0F3400020B1E068012801D00120FA
:1027500053E7A5480838006820F0F800216940EAEE
:10276000C100A1490839086041E0E06828B39E48EB
:102770000838006840F001009B4908390860FEF7FE
:10278000E5F9054606E0FEF7E1F9401B022801D90C
:10279000032032E7944808380068C0F3400000285E
:1027A000F1D091480838006820F0F800216940EA2B
:1027B000C1008D490839086019E08B480838006865
:1027C00020F00100884908390860FEF7BFF9054686
:1027D00006E0FEF7BBF9401B022801D903200CE7F5
:1027E000814808380068C0F340000028F1D1207803
:1027F00000F00800082836D16069D0B17A486C3002
:10280000006840F0010078496C310860FEF79EF9DD
:10281000054606E0FEF79AF9401B022801D903207D
:10282000EBE671486C300068C0F340000028F1D03E
:1028300019E06D486C30006820F001006A496C3185
:102840000860FEF783F9054606E0FEF77FF9401BB6
:10285000022801D90320D0E663486C300068C0F339
:1028600040000028F1D1207800F00400042874D141
:102870005D483830006800F0805080B900BF5A4889
:102880003830006840F080505749383108600846B9
:10289000006800F08050009000BF00BF0126534840
:1028A000006800F48070B0B95048006840F480704F
:1028B0004E490860FEF74AF9054606E0FEF746F97C
:1028C000401B642801D9032097E64848006800F4BB
:1028D00080700028F2D000BFA068012808D14248CB
:1028E0006830006840F001003F49683108602DE021
:1028F000A06868B93C486830006820F001003A4997
:10290000683108600846006820F0040008601DE097
:10291000A06805280DD134486830006840F00400F4
:102920003149683108600846006840F001000860DD
:102930000CE02D486830006820F001002A49683119
:1029400008600846006820F00400086000BFA06826
:10295000A8B1FEF7FBF8054609E02EE0FEF7F6F811
:10296000401B41F28831884201D9032045E61E48C8
:1029700068300068C0F340000028EFD013E0FEF795
:10298000E5F8054608E0FEF7E1F8401B41F2883122
:10299000884201D9032030E6134868300068C0F34C
:1029A00040000028EFD1012E07D10F4838300068D1
:1029B00020F080500C4938310860A069F0B30A4813
:1029C000006800F00C00082868D0A06902284DD1EA
:1029D00005480838006820F080700349083908600D
:1029E000FEF7B4F805460AE00838024000700040DF
:1029F000FEF7ACF8401B022801D90320FDE5294869
:102A00000068C0F340600028F2D1D4E90701084310
:102A1000616A40EA81110122A06AC2EB500041EADA
:102A200000412C20005D41EA00613020005D41EA58
:102A300000701C49091D0860081F00E030E00068B4
:102A400040F08070091F0860FEF780F8054606E038
:102A5000FEF77CF8401B022801D90320CDE5114880
:102A60000068C0F340600028F2D019E00D4800680B
:102A700020F080700B490860FEF768F8054606E014
:102A8000FEF764F8401B022801D90320B5E505488C
:102A90000068C0F340600028F2D101E00120ACE5FD
:102AA0000020AAE50038024070B504462546681E9D
:102AB000B0F1807F01D301200FE0681E4FF0E021CC
:102AC00048610F214FF0FF3002F090FD00204FF0E1
:102AD000E021886107200861002070BD10B5044620
:102AE0000CB9012010BDA06900B100E000BF606F0B
:102AF00028B9002084F87000204600F029F824202E
:102B000060672068006820F00100216808602046A6
:102B100000F070FC012800D1E4E7606A10B12046A3
:102B200000F0C8FB2068406820F4904021684860AD
:102B30002068806820F02A0021688860206800688A
:102B400040F0010021680860204600F02FFCC9E732
:102B500010B586B00446142101A8FDF7B3FB19494E
:102B6000206888422CD100BF1748006840F48020BC
:102B7000154908600846006800F48020009000BFF6
:102B800000BF00BF10481038006840F008000E4930
:102B9000103908600846006800F00800009000BF87
:102BA00000BF4FF44070019002200290002003907B
:102BB000032004900720059001A90448FDF7ACFE0E
:102BC00006B010BD0048004040380240000C0240F2
:102BD0002DE9F84F04460E4617469946606F2028A7
:102BE0005CD106B117B90120BDE8F88F00BF94F899
:102BF0007000012801D10220F6E7012084F870005E
:102C000000BF0020E06721206067FDF79FFF82463C
:102C1000A4F85070A4F85270A068B0F5805F04D199
:102C2000206910B90025B04602E035464FF0000893
:102C30001DE05346002280212046CDF8009000F090
:102C4000ABFD08B10320CFE745B9B8F80000C0F3E9
:102C500008002168886208F1020803E028782168EA
:102C600088626D1CB4F85200401EA4F85200B4F8FB
:102C700052000028DDD15346002240212046CDF8E5
:102C8000009000F089FD08B10320ADE720206067C7
:102C900000BF002084F8700000BFA5E70220A3E772
:102CA00000BFFEE730B50B46002100BF16E00A2446
:102CB000B4EB107F05D9302404EB107403F81140F5
:102CC00005E0412404EB10740A3C03F811400001B4
:102CD00000254C00641C1D554C1CE1B29142E6DB02
:102CE00030BD000000B587B0142102A8FDF7EAFA54
:102CF00000BF3D48006840F004003B4908600846BA
:102D0000006800F00400019000BF00BF00BF08464B
:102D1000006840F0800008600846006800F080000D
:102D2000019000BF00BF00BF0846006840F00200ED
:102D300008600846006800F00200019000BF00BF74
:102D400000BF0846006840F00800086008460068B8
:102D500000F00800019000BF00BF00BF08460068F7
:102D600040F0010008600846006800F00100019092
:102D700000BF00BF00BF0846006840F04000086088
:102D80000846006800F04000019000BF00BF00222C
:102D90004FF481411548FDF7D3FE4FF400500290E7
:102DA00000200390049002A91148FDF7B5FD4FF4EF
:102DB000814002900120039000200490059002A918
:102DC0000A48FDF7A9FD4FF420500290022003901D
:102DD00000200490032005900B20069002A90548CE
:102DE000FDF79AFD07B000BD3038024000040240F4
:102DF000000802400018024010B50D480D49086057
:102E00004FF4E130486000210A488160C1600161EF
:102E10000C21416100218161C161016200200549ED
:102E200048620846FFF75AFE08B1FDF70CFB10BDDB
:102E3000004800405001002010B500220D490E4806
:102E400001F072F808B1FDF7FEFA0C490A4801F0EA
:102E5000D1FA08B1FDF7F7FA0949074800F053FD28
:102E600008B1FDF7F0FA044801F08CFB08B1FDF75A
:102E7000EAFA10BD00000020D0010020C8000020A8
:102E80008400002000BFFEE77047000010B5024834
:102E9000FEF743F910BD0000F40300202DE9F047D0
:102EA00005460C462F683E46D7F8408006F5306050
:102EB00000EB4410D0F80890286901280FD1184879
:102EC00080451BD909F40040B0F5004F16D14FF4EE
:102ED000004106F5306000EB441081600EE01148BF
:102EE00080450BD109F40040B0F5004F06D14FF4F6
:102EF000004106F5306000EB441081602846FEF783
:102F00002CFD0748804508D92869012805D105F519
:102F100071720121286801F0A1FF0020BDE8F0874F
:102F20000A30544F0A31544F2DE9F04705460C46FC
:102F3000D5F800804646D8F8409006F5306000EBA2
:102F400044108768286901287ED107F00800082806
:102F50001ED1534881450BD907F40040B0F5004F0E
:102F600006D14FF4004106F5306000EB441081605B
:102F70002846FEF7F2FC05F571720121286801F080
:102F80006DFF082106F5306000EB4410816083E09E
:102F900007F02000202806D1202106F5306000EB44
:102FA0004410816078E007F02800002874D13C4884
:102FB00081450CD907F40040B0F5004F07D14FF41C
:102FC000004106F5306000EB4410816064E0C4EB22
:102FD000C40105F5FE7000EB8100816806F53060E4
:102FE00000EB44100069C0F31200091AC4EBC402DC
:102FF00005F5FE7000EB82008161C4EBC40105F5AC
:10300000FE7000EB8100C4EBC402C16805F5FE70E0
:1030100000EB820080680144C4EBC40205F5FE7039
:1030200000EB8200C160E1B22846FDF708FFFCB961
:10303000C4EBC40105F5FE7000EB81004069B8B92E
:1030400005F57172012100E003E0286801F006FF38
:1030500022E0144881451BD107F40040B0F5004F31
:1030600007D14FF4004106F5306000EB4410816059
:1030700012E007F02000202805D1202106F530605D
:1030800000EB44108160E1B22846FDF7D8FE03E072
:10309000E1B22846FDF7D3FE0020BDE8F08700002E
:1030A0000A30544F0A31544F2DE9F84F07460E4667
:1030B000D7F80090C846C6EBC60107F13C0000EB0C
:1030C0008104D4E90510884202D90120BDE8F88FB7
:1030D000D4E90501451AA068A84200D2A568E81CF9
:1030E0004FEA900A17E0D4E90501451AA068A84202
:1030F00000D2A568E81C4FEA900A387CABB2F2B265
:1031000000904846E16802F039FAE0682844E0603F
:10311000A0692844A06108F5106000EB46108069A2
:1031200080B2504506D3D4E90510884202D26069C6
:103130000028D8D1D4E9050188420ED806F00F0145
:10314000012000FA01FB40F6340050F8080020EAA4
:103150000B0040F6340141F808000020B6E7704744
:10316000704710B5FDF7F8FC10BD10B500F002F87F
:1031700010BD000000B5B7B034212AA8FDF7A2F8B1
:10318000142125A8FDF79EF8902101A8FDF79AF8D3
:10319000FEF768FC00BF2B48006840F080502949CA
:1031A00008600846006800F08050009000BF00BF33
:1031B00000BF2548006840F44040234908600846A5
:1031C000006800F44040009000BF00BF01202A903A
:1031D0004FF4A0202B900220309041052AA8C16115
:1031E00004210162D8214162022181620921C16268
:1031F000FFF7FEF908B1FDF726F9FEF7EBFB08B182
:10320000FDF721F90F20259002202690002027901D
:103210004FF4A05028904FF480502990072125A802
:10322000FEF7D6FF08B1FDF70EF90848019000201F
:103230001490209001A8FEF71FFC08B1FDF703F9D8
:1032400037B000BD4038024000700040000120004F
:103250001448006840F47000124908601248006881
:1032600040F001001049086000200F490831086053
:103270000D4800680D4908400B4908600C48091DBD
:103280000860081F006820F48020091F08600020E3
:1032900005490C3108604FF0006002498039086030
:1032A0007047000088ED00E000380240FFFFF6FEA6
:1032B0001030002490F8241001F0010139B10168A8
:1032C000496821F40031826A11430268516090F824
:1032D000241001F00201022907D10168496821F494
:1032E0008031C26A11430268516090F8241001F0E5
:1032F0000401042907D10168496821F48021026B87
:1033000011430268516090F8241001F00801082967
:1033100007D10168496821F40041426B11430268FA
:10332000516090F8241001F01001102907D10168B4
:10333000896821F48051826B11430268916090F892
:10334000241001F02001202907D10168896821F4A7
:103350000051C26B11430268916090F8241001F093
:103360004001402913D10168496821F48011026CA1
:10337000114302685160016CB1F5801F07D10168EB
:10338000496821F4C001426C11430268516090F811
:10339000241001F08001802907D10168496821F4D7
:1033A0000021826C114302685160704738B50446B1
:1033B0000020E067FDF7CAFB05462068006800F0C2
:1033C000080008280CD16FF07E402B4600224FF4F5
:1033D00000110090204600F0DFF908B1032038BD4D
:1033E00020206067A06700BF002084F8700000BF45
:1033F00000BFF4E72DE9F04704460026B1462169F5
:10340000A068084361690843E16940EA0107206850
:103410000068D54908403843216808602068406842
:1034200020F44050E168084321684860A769206A99
:1034300007432068806820F4306038432168886042
:1034400000BFCA492068884216D1C948006800F008
:10345000030030B1012808D0022804D0032808D185
:1034600005E0012507E0022505E0042503E0082525
:1034700001E0102500BFC9E0BE492068884216D18E
:10348000BB48006800F00C0030B1042808D00828C0
:1034900004D00C2808D105E0002507E0022505E04E
:1034A000042503E0082501E0102500BFAEE0B24985
:1034B0002068884216D1AE48006800F0300030B174
:1034C000102808D0202804D0302808D105E0002595
:1034D00007E0022505E0042503E0082501E01025AA
:1034E00000BF93E0A5492068884216D1A048006833
:1034F00000F0C00030B1402808D0802804D0C02897
:1035000008D105E0002507E0022505E0042503E0D9
:10351000082501E0102500BF78E09949206888421D
:1035200019D19348006800F4407048B1B0F5807F2D
:103530000AD0B0F5007F05D0B0F5407F08D105E096
:10354000002507E0022505E0042503E0082501E049
:10355000102500BF5AE08B492068884219D1844861
:10356000006800F4406048B1B0F5806F0AD0B0F553
:10357000006F05D0B0F5406F08D105E0012507E0E8
:10358000022505E0042503E0082501E0102500BF21
:103590003CE07D492068884219D17548006800F4F4
:1035A000405048B1B0F5805F0AD0B0F5005F05D05B
:1035B000B0F5405F08D105E0002507E0022505E0F1
:1035C000042503E0082501E0102500BF1EE06F4937
:1035D0002068884219D16648006800F4404048B12C
:1035E000B0F5804F0AD0B0F5004F05D0B0F5404F90
:1035F00008D105E0002507E0022505E0042503E0E9
:10360000082501E0102500BF00E0102500BFE0699B
:10361000B0F5004F57D1042D28D005DC4DB1012D58
:1036200011D0022D36D118E0082D29D0102D31D11E
:1036300031E0FEF765FF4000616800EB5100B0FB30
:10364000F1F086B22AE0FEF76BFF4000616800EB04
:103650005100B0FBF1F086B220E04D49606801EB0B
:1036600050006168B0FBF1F086B217E0FEF768FF2A
:103670004000616800EB5100B0FBF1F086B20DE054
:103680004FF48031606801EB50006168B0FBF1F0ED
:1036900086B203E000BF4FF0010900BF00BF102E4B
:1036A0000ED3B6F5803F0BD24FF6F07006EA000855
:1036B000C6F3420048EA00082068C0F80C804DE0DC
:1036C0004FF001094AE0042D26D005DC4DB1012D53
:1036D00010D0022D33D116E0082D26D0102D2ED17A
:1036E0002EE0FEF70DFF616800EB5100B0FBF1F03A
:1036F00086B228E0FEF714FF616800EB5100B0FBD2
:10370000F1F086B21FE02349606801EB5000616868
:10371000B0FBF1F086B216E0FEF712FF616800EB35
:103720005100B0FBF1F086B20DE04FF4004160684B
:1037300001EB50006168B0FBF1F086B203E000BF1E
:103740004FF0010900BF00BF102E05D3B6F5803F32
:1037500002D22068C66001E04FF001090020206617
:1037600060664846BDE8F087F369FFEF001001404E
:10377000903802400044004000480040004C0040A7
:10378000005000400014014000780040007C0040E0
:103790000048E8010024F4002DE9F04104460D46FC
:1037A00017469846069E1FE0701CE8B1FDF7CEF95B
:1037B000A0EB0800B04200D8B6B92068006820F439
:1037C000D070216808602068806820F001002168BE
:1037D000886020206067A06700BF002084F8700028
:1037E00000BF0320BDE8F0812068C0692840A842DE
:1037F00001D1012000E00020B842D5D00020F1E73F
:1038000002460020D2F8183283F85000704770B595
:1038100004460E46D4F8185269782878D4F81C3239
:10382000DA68904740232A460121204600F0EAFC4E
:10383000002070BD70B504460D468121204600F081
:103840009FFB0121204600F09BFBD4F8180250B1E9
:10385000D4F81C1288688047D4F8180202F07CF96A
:103860000020C4F81802002070BD70B50546D5F8D8
:103870001842E06C012807D161782078D5F81C3215
:10388000DA6890470020E064002070BD01462920DE
:1038900008800148704700000001002001460A200E
:1038A0000880014870470000380100202DE9F041F0
:1038B00004460F460026402303228121204600F0C3
:1038C00089FC402303220121204600F083FC542080
:1038D00002F036FDC4F81802D4F8180208B901261F
:1038E0000EE0D4F81852002085F85000D4F81C12CD
:1038F0004868804740232A460121204600F082FC88
:103900003046BDE8F0810246022011B1C2F81C1217
:10391000002070472DE9F04104460D461646D4F8C4
:10392000187294F8FC0103280BD197F8500040B9A5
:10393000012087F8500033462A468121204600F0B6
:103940002DFD0020BDE8F0812DE9F04106460C4632
:103950000027B846D6F81852207800F0600080B3EF
:10396000202869D16078801E0A2823D2DFE800F081
:10397000130822222222221A0F05A078286421E0AF
:10398000012205F14001304600F0CEF81AE06088CF
:103990000012686416E0012205F14401304600F08F
:1039A000C3F80FE00120E864A2792946304600F010
:1039B0009AF807E02146304600F089F80220BDE879
:1039C000F08101E000BF37E06078062804D00A28C3
:1039D00027D00B282FD12BE060882221B1EB202F9C
:1039E0000BD1E088222801D9222000E0E088074698
:1039F000D6F81C02D0F800800DE060882121B1EBE0
:103A0000202F08D1DFF83880E088092801DD09205F
:103A100000E0E08807463A464146304600F084F828
:103A200009E0012205F14801304600F07DF802E08E
:103A3000A078A86400BF00BF00BF0020BFE700005F
:103A40002C01002070B504460D46D4F81402294616
:103A5000426820469047002070BD70B504460D4670
:103A600094F8FC01022802D0032811D100E000BF25
:103A7000688801280BD10020C4F80402D4F814028D
:103A80002946826820469047204600F05EF804E010
:103A90002946204600F01BF800BF00BF70BD70B57E
:103AA00006460C4615462B4622460021304600F0BD
:103AB000A9FB002070BD70B506460C4615462B4686
:103AC00022460021304600F069FC002070BD70B530
:103AD00004460D468021204600F034FC002120469B
:103AE00000F030FC70BD70B504460E46154603204C
:103AF000C4F8F4014FF484700551001D05512B46A4
:103B000032460021204600F07DFB002070BD10B53C
:103B100004460520C4F8F40100231A46194620463D
:103B200000F070FB002010BD70B504460E4615462F
:103B30000220C4F8F401A561E5612B46324600215C
:103B4000204600F02BFC002070BD10B50446042078
:103B5000C4F8F40100231A461946204600F01EFC62
:103B6000002010BD70B505460C462DB92246064909
:103B700006A000F09AF904E02246034903A000F0F1
:103B800094F9014870BD0000F80700204375737474
:103B90006F6D2048494420436F6E666967000000DE
:103BA00002461220088001487047000020000020D3
:103BB00070B505460C462DB92246064906A000F010
:103BC00074F904E02246034903A000F06EF90148AD
:103BD00070BD0000F8070020437573746F6D2048B6
:103BE000494420496E746572666163650000000097
:103BF0000246042008800148704700004000002071
:103C000070B505460C462246024903A000F04DF966
:103C1000004870BDF807002053544D6963726F650A
:103C20006C656374726F6E696373000070B50546EE
:103C30000C462DB92246064906A000F036F904E0EC
:103C40002246034903A000F030F9014870BD00008E
:103C5000F807002053544D333220437573746F6D51
:103C60002048756D616E20696E746572666163656A
:103C70000000000070B505460C461A202080FCF7B5
:103C80002FFD014870BD00004400002002460C20BA
:103C900008800148704700003400002070B50446D9
:103CA0000D46E888012804D029462046FFF70FFF7B
:103CB0001BE094F8FC01022802D003280FD108E091
:103CC0000020A060012204F108012046FFF72CFF2C
:103CD0000AE00122211D2046FFF726FF04E02946C5
:103CE0002046FFF7F4FE00BF00BF70BDF8B50446E4
:103CF0000E467088001206286ED006DC012810D00F
:103D0000022816D0032870D127E0072874D00F2886
:103D1000F9D1207CD4F81012CA696946904705464B
:103D20007FE0207CD4F810120A6869469047054667
:103D300077E0207C40B9D4F81402816A684688474D
:103D400005460221697007E0D4F81402C16A68468A
:103D5000884705460221697063E0B078062834D2AE
:103D6000DFE800F0030B131B232B207CD4F8101288
:103D70004A686946904705462CE0207CD4F810122A
:103D80008A6869469047054624E0207CD4F81012E2
:103D9000CA686946904705461CE0207CD4F810129A
:103DA0000A6969469047054614E0207CD4F8101251
:103DB0004A696946904705460CE0207CD4F8101209
:103DC0008A6969469047054604E031462046FFF778
:103DD0007EFEF8BD00BF24E0207C40B9D4F8140278
:103DE000416B6846884705461BE015E004E0314614
:103DF0002046FFF76CFEECE7207C40B9D4F81402B3
:103E0000016B6846884705460721697009E031461D
:103E10002046FFF75CFEDCE731462046FFF757FE01
:103E2000D7E700BFBDF8000088B1F08878B1F0880E
:103E3000BDF80010884202DDBDF8000000E0F08807
:103E40000090BDF8002029462046FFF76DFE00BF18
:103E5000BFE70146002002E0421CD0B2491C0A78AC
:103E6000002AF9D1704770B504460D4694F8FC015C
:103E7000022802D0032811D100E000BF0120E06039
:103E8000D4F8040218B1E06840F00200E0600222B9
:103E900004F10C012046FFF747FE04E029462046C6
:103EA000FFF715FE00BF00BF70BD2DE9F0410446CD
:103EB0000D4617460026FCB12046FFF7CAFF022137
:103EC00001EB400038803A783046711CCEB22A545B
:103ED00003223046711CCEB22A540AE014F8012B9A
:103EE0003046711CCEB22A5400223046711CCEB22C
:103EF0002A5420780028F1D1BDE8F0810146002045
:103F000031B1012906D0022906D0032908D105E0E4
:103F1000002007E0022005E0012003E0022001E08C
:103F2000022000BF00BF704770B504460D4616461C
:103F30000CB9022070BDD4F8140210B10020C4F8EE
:103F400014020DB1C4F81052012084F8FC0126704F
:103F5000204600F0E9F80020ECE72DE9F0410446A6
:103F60000D46002600272946D4F82002FCF7B3FFAF
:103F700006463046FFF7C2FF07463846BDE8F081E7
:103F80002DE9F04104460D46002600272946D4F8C5
:103F90002002FCF76BFF06463046FFF7AFFF0746EF
:103FA0003846BDE8F0812DE9F04104460E4617463B
:103FB000002E54D104F11405D4F8F401022843D1A1
:103FC000D5E90201884210D9D5E90201401AA8605A
:103FD000288982B239462046FFF76DFD00231A4634
:103FE0001946204600F00EF92EE0E9686868B0FB3B
:103FF000F1F201FB1200B8B9E9686868884213D38E
:104000006868D4F8F81188420ED200221146204682
:10401000FFF751FD0020C4F8F80100231A461946A5
:10402000204600F0EFF80FE0D4F81402C06840B169
:1040300094F8FC01032804D1D4F81402C168204686
:1040400088472046FFF763FD94F80002012814D149
:10405000204600F0D7F9002084F800020DE0D4F8E3
:104060001402406948B194F8FC01032805D1D4F842
:10407000140231464269204690470020BDE8F08195
:104080002DE9F04105460E4617465EBB05F58274E4
:10409000D5F8F401032833D1D4E90201884210D9BC
:1040A000D4E90201401AA060D4E90201884201D299
:1040B000A06800E0E06882B239462846FFF7EFFCCE
:1040C0001EE0D5F81402006940B195F8FC01032800
:1040D00004D1D5F814020169284688472846FFF71D
:1040E00034FD0DE0D5F81402806948B195F8FC0163
:1040F000032805D1D5F81402314682692846904735
:104100000020BDE8F08101460020704710B504464C
:10411000012084F8FC012179D4F814024268204679
:104120009047002010BD000010B5044620780028FC
:104130002AD11648C0F80044C4F820024FF0A0402D
:10414000124908600620486002211048C160002121
:104150000161022181610021C16101624162C1628C
:104160000163FDF7B1FA08B1FCF76DF9802107484A
:10417000FCF722FE402200210448FCF722FE8022A8
:1041800001210248FCF71DFE002010BDF4030020B1
:1041900010B50246D2F8203201F08000802809D103
:1041A00001F07F00C0EBC00403F13C0000EB840091
:1041B000807810BD01F07F00C0EBC00403F5FE70F5
:1041C00000EB84008078F4E7024600207047024646
:1041D000002070472DE9F04704460F4615461E465D
:1041E0004FF00008C1462B4632463946D4F820022B
:1041F000FCF7AFFE80464046FFF780FE814648460A
:10420000BDE8F0872DE9F04704460D4616461F46E7
:104210004FF00008C1463B4632462946D4F82002FA
:10422000FCF7DDFE80464046FFF768FE81464846C3
:10423000BDE8F08710B50446402300221146204611
:10424000FFF7C8FF40214FF488700151402300223E
:1042500080212046FFF7BEFF40212162012084F823
:10426000FC01D4F8180228B12179D4F8140242686C
:1042700020469047002010BD014691F8FD0181F8CD
:10428000FC010020704710B5044694F8FC01032897
:1042900008D1D4F81402C06920B1D4F81402C1695D
:1042A00020468847002010BD024611740020704748
:1042B0002DE9F04104460D46002600272946D4F892
:1042C0002002FDF72FFB06463046FFF717FE074694
:1042D0003846BDE8F08170B504460D46294604F520
:1042E000027000F073F80120C4F8F40140F20E20CF
:1042F000005BC4F8F80194F8080200F01F0020B138
:10430000012808D0022812D10BE004F502712046E2
:1043100000F03FF913E004F50271204600F01DFAA9
:104320000DE004F50271204600F06CF907E094F806
:10433000080200F08001204600F004F800BF00BF32
:10434000002070BD2DE9F04104460D4600260027EF
:104350002946D4F82002FCF76EFE06463046FFF7E9
:10436000CDFD07463846BDE8F08170B5044600250E
:104370000026D4F82002FDF7F9FA05462846FFF793
:10438000BDFD0646304670BD014691F8FC0181F83E
:10439000FD01042081F8FC01002070472DE9F04761
:1043A00004460D4616461F464FF00008C1463B46E0
:1043B00032462946D4F82002FCF782FE8046404669
:1043C000FFF79CFD81464846BDE8F0870A780270F9
:1043D0004A7842708B78CA7803EB022242800B79CC
:1043E0004A7903EB022282808B79CA7903EB02229D
:1043F000C28070470246002011B1C2F8141200E0DA
:104400000220704701460020704770B504460D46F3
:10441000A888F8B9E888E8B9A87800F07F0694F889
:10442000FC01032804D129462046FFF750FB15E084
:1044300084F8FE6131462046FFF73AFF2046FFF739
:1044400084FB1EB1022084F8FC0107E0012084F8FF
:10445000FC0103E029462046FFF739FB70BD70B52B
:1044600004460D460226D4F8140238B1D4F81402DA
:10447000294602682046904700B90026304670BDA4
:1044800070B504460D46A87834490870084600788F
:10449000012804D929462046FFF719FB5BE094F870
:1044A000FC01022802D003284FD11CE02B480078E1
:1044B000A8B12A4800786060032084F8FC012748EE
:1044C00001782046FFF7CBFF022804D12946204679
:1044D000FFF7FDFA70BD2046FFF737FB02E02046EC
:1044E000FFF733FB36E01D48007870B9022084F8EE
:1044F000FC011A4800786060184801782046FFF7F0
:10450000A1FA2046FFF721FB1EE0144909786068F4
:10451000884216D021792046FFF794FA0F48007898
:1045200060600E4801782046FFF799FF022804D109
:1045300029462046FFF7CBFACCE72046FFF705FBDC
:1045400002E02046FFF701FB04E029462046FFF782
:10455000BEFA00BF00BF00BFBCE70000C4000020DF
:1045600070B504460D46688801280AD1C4F80402D3
:10457000D4F8140229468268204690472046FFF767
:10458000E4FA70BD10B504462046FFF7EEFE0020A9
:1045900010BD70B505460C46002660780A2829D261
:1045A000DFE800F01923281E280A0528140F2146E9
:1045B0002846FFF79BFB22E021462846FFF725FF10
:1045C0001DE021462846FFF75BFF18E021462846FC
:1045D000FFF764FB13E021462846FFF744FC0EE09A
:1045E00021462846FFF7BCFF09E021462846FFF791
:1045F00034FA04E021462846FFF769FA00BF00BFFD
:10460000304670BD2DE9F04105460E464FF00008DA
:104610003479307800F06000202808D1D5F81402F1
:1046200031468268284690470020BDE8F0817078C6
:10463000002855D001282AD003287AD195F8FC010A
:10464000022802D003281BD107E02CB1802C03D014
:1046500021462846FFF776FE17E0708830B92CB166
:10466000802C03D021462846FFF76CFED5F81402B3
:1046700031468268284690472846FFF766FA04E0EC
:1046800031462846FFF723FA00BF00BF62E095F8E5
:10469000FC01022802D003281BD107E02CB1802C9A
:1046A00003D021462846FFF74DFE17E0708878B901
:1046B00004F07F0048B121462846FFF74EFCD5F8AC
:1046C000140231468268284690472846FFF73DFA93
:1046D00004E031462846FFF7FAF900BF00BF39E091
:1046E00095F8FC01022802D003282BD107E004F042
:1046F0007F0018B121462846FFF724FE27E004F08A
:104700008000802806D104F07F0105F1140000EB41
:10471000011005E004F07F0105F5827000EB011047
:10472000074621462846FFF733FD18B101203860BF
:1047300002E00EE000203860022239462846FFF7EA
:10474000F3F904E031462846FFF7C1F900BF00BF86
:1047500000E000BF00BF404667E770B504460D4665
:10476000002694F8FC01032814D1287901280CD8DC
:10477000D4F814022946826820469047E88840B958
:104780003EB92046FFF7E1F903E029462046FFF74E
:104790009EF904E029462046FFF799F900BF00BFC3
:1047A000002070BD70B504460B4622461978587833
:1047B00001282CD140F61C0080581D7805F00F060A
:1047C0000125B540ADB2284340F61C05A85002F5BE
:1047D000106000EB4110006800F40040F0BB188945
:1047E000C0F30A00DD7840EA854040EA815040F09D
:1047F000805040F4004002F5106505EB41152D682E
:10480000284302F5106505EB411528602DE040F6C0
:104810001C0080581D7805F00F060125B540144E88
:1048200006EA0545284340F61C05A85002F530600D
:1048300000EB4110006800F4004078B91889C0F31B
:104840000A00DD7840EA854040F0805040F40040A6
:1048500002F5306505EB41152D6800E005E02843C1
:1048600002F5306505EB41152860002070BD0000A1
:104870000000FFFF024611464FF410604058C30A83
:10488000DB024FF41060435040F60800405800F03F
:104890000600042807D14FF41060405840F003038D
:1048A0004FF41060435040F60400405840F48073C9
:1048B00040F6040043500020704700000FB470B56C
:1048C00004460A98012817D1A06B20F48030A06319
:1048D000E06817490840E060E06820F44010E060BC
:1048E0001198012803D1E06840F48010E060204670
:1048F00000F020F805460BE0E06840F04000E06082
:10490000204600F017F80546A06B40F48030A06305
:104910000898012807D1A06840F00600A060A068B0
:1049200040F02000A060284670BC5DF814FB000039
:10493000BFFFBDFF0146002200BF501C02460F4BC7
:10494000984201D903207047086900F00040002810
:10495000F3D00022086940F00100086100BF501C3C
:104960000246064B984201D90320ECE7086900F0A3
:1049700001000028F3D100BFE5E70000400D03006F
:1049800070B504460B4621461A785878012826D17E
:1049900040F63C0040581D7805F00F060125B54053
:1049A000ADB2A84340F63C05685040F61C004058A4
:1049B0001D7805F00F060125B540ADB2A84340F6BD
:1049C0001C05685001F5106000EB421000681A4D9C
:1049D000284001F5106505EB4215286029E040F6F6
:1049E0003C0040581D7805F00F060125B540134ED8
:1049F00006EA0545A84340F63C05685040F61C0011
:104A000040581D7805F00F060125B5400B4E06EA0B
:104A10000545A84340F61C05685001F5306000EBE1
:104A200042100068064D284001F5306505EB42153F
:104A30002860002070BD0000007833EC0000FFFF0C
:104A40000078F3EF70B50446254640F6040040595F
:104A500020F0020140F6040041510320FBF77CFEE8
:104A6000002070BD70B50446254640F6040040594C
:104A700040F0020140F6040041510320FBF76CFEB8
:104A8000002070BD0FB4F0B506460027354600245F
:104A900005E0002106F5827040F82410641C0F2CFC
:104AA000F7D3109860B9B06B20F40010B063306891
:104AB00040F040003060306840F08000306003E03B
:104AC000B06B40F40010B0630020C5F8000ED5F8BC
:104AD0000008C5F800080B9801280BD1089820B9E8
:104AE0000021304600F0CCFC17E00121304600F0F8
:104AF000C7FC12E00B9803280BD1089820B90021BD
:104B0000304600F0BDFC08E00121304600F0B8FC62
:104B100003E00321304600F0B3FC1021304600F0E2
:104B2000FFFB00B10127304600F0E4FB00B1012794
:104B300000214FF401604151001D415140F61C001D
:104B4000415100242EE005F5106000EB4410006890
:104B500000F00040B0F1004F10D13CB94FF00061BF
:104B600005F5106000EB441001600DE04FF090413E
:104B700005F5106000EB4410016005E0002105F52B
:104B8000106000EB44100160002105F5106000EB9F
:104B9000441001614FF67F3105F5106000EB4410C1
:104BA0008160641C0698A042CDD800242EE005F553
:104BB000306000EB4410006800F00040B0F1004F9E
:104BC00010D13CB94FF0006105F5306000EB4410A6
:104BD00001600DE04FF0904105F5306000EB4410AE
:104BE000016005E0002105F5306000EB4410016034
:104BF000002105F5306000EB441001614FF67F3174
:104C000005F5306000EB44108160641C0698A042FA
:104C1000CDD84FF40160405920F480714FF4016009
:104C200041510998012809D114494FF403604151B9
:104C30004059134908434FF4036148510020B061C3
:104C40006FF080407061099818B9B06940F01000A9
:104C5000B061B0690B490843B0610C9818B1B069F4
:104C600040F00800B0611098012803D1B0690649EE
:104C70000843B0613846F0BC5DF814FB00018000C9
:104C80000300010000383C800400004001468868B1
:104C900020F001008860002070470000F0B5054654
:104CA0000B4614462A461978587801287DD1586950
:104CB00020BB02F5106000EB41100069664E3040E9
:104CC00002F5106606EB4116306102F5106000EB4C
:104CD0004110006940F4002602F5106000EB41101D
:104CE000066102F5106000EB41100069C60CF60485
:104CF00002F5106000EB4110066137E002F510602C
:104D000000EB41100069C60CF60402F5106000EBE0
:104D10004110066102F5106000EB411000694E4E33
:104D2000304002F5106606EB411630619E68586906
:104D3000B04201D99868586102F5106000EB41104B
:104D4000006940F4002602F5106000EB4110066196
:104D500002F5106000EB411000695E69C6F31206AF
:104D6000304302F5106606EB41163061012C08D184
:104D70001869A0B102F5106000EB41101E69466190
:104D80000DE0586958B140F6340080581E7806F09E
:104D90000F070126BE40304340F63406B05002F5FE
:104DA000106000EB4110006800E007E040F00446AE
:104DB00002F5106000EB411006604BE002F5306038
:104DC00000EB41100069C60CF60402F5306000EB00
:104DD0004110066102F5306000EB411000691E4E83
:104DE000304002F5306606EB41163061586908B173
:104DF0009868586102F5306000EB4110006940F49A
:104E0000002602F5306000EB4110066102F53060CB
:104E100000EB411000699E68C6F31206304302F5AC
:104E2000306606EB41163061012C07D1D86828B1F5
:104E300002F5306000EB4110DE68466102F530603B
:104E400000EB4110006840F0044602F5306000EBD2
:104E5000411006600020F0BDFFFF07E070B503467B
:104E60000C4619461D6C1848854209D94FF430602C
:104E7000405800F00040B0F1004F01D1002070BD5B
:104E80000026C1F8106BD1F8100B40F40026C1F8D1
:104E9000106BD1F8100B40F01806C1F8106BD1F868
:104EA000100B40F0C046C1F8106B012C09D1C1F8BD
:104EB000142B4FF43060405840F080264FF430609F
:104EC00046500020DBE700000A30544F30B504465E
:104ED0000B4622461978587801281ED102F5106039
:104EE00000EB4110006820F4001502F5106000EBA3
:104EF00041100560D878032802D0D87802282AD13A
:104F000002F5106000EB4110006840F0805502F59A
:104F1000106000EB411005601DE002F5306000EB11
:104F20004110006820F4001502F5306000EB4110DC
:104F30000560D878032802D0D87802280BD102F572
:104F4000306000EB4110006840F0805502F53060A1
:104F500000EB41100560002030BD30B504460B4623
:104F6000224619785878012821D102F5106000EB0B
:104F70004110006800F0004060B959B102F51060BE
:104F800000EB4110006820F0804502F5106000EB56
:104F90004110056002F5106000EB4110006840F41C
:104FA000001502F5106000EB4110056020E002F5ED
:104FB000306000EB4110006800F0004060B959B16A
:104FC00002F5306000EB4110006820F0804502F5EA
:104FD000306000EB4110056002F5306000EB4110DD
:104FE000006840F4001502F5306000EB41100560E8
:104FF000002030BD2DE9F84381460E4617464D4648
:105000003478707801287DD1706920BB05F5106077
:1050100000EB44100069B249084005F5106101EB4E
:105020004411086105F5106000EB4410006940F47C
:10503000002105F5106000EB4410016105F51060DA
:1050400000EB44100069C10CC90405F5106000EBC9
:105050004410016155E005F5106000EB4410006953
:10506000C10CC90405F5106000EB4410016105F5A1
:10507000106000EB441000699949084005F5106183
:1050800001EB44110861B16870690844401EB0FB2F
:10509000F1F09349C94301EAC04005F5106101EB05
:1050A00044110969084305F5106101EB44110861D9
:1050B00005F5106000EB441000697169C1F312013D
:1050C000084305F5106101EB44110861F0780128EF
:1050D00017D105F5106000EB4410006920F0C041C5
:1050E00005F5106000EB4410016105F5106000EB60
:1050F0004410006940F0005105F5106000EB4410C9
:10510000016100E055E0012F08D13069B8B105F523
:10511000106000EB44103169416110E0F078012823
:105120000DD0706958B140F634004059317801F023
:105130000F0201219140084340F634014851F078B4
:1051400001281ED140F60800405900F4807060B973
:1051500005F5106000EB4410006840F0005105F5C3
:10516000106000EB441001600BE005F5106000EBEF
:105170004410006840F0805105F5106000EB4410C9
:10518000016005F5106000EB4410006840F0044138
:1051900005F5106000EB44100160F078012807D19C
:1051A0000097B08A83B232784846F16800F0E6F999
:1051B00093E005F5306000EB44100069C10CC904B0
:1051C00005F5306000EB4410016105F5306000EB3F
:1051D000441000694249084005F5306101EB441173
:1051E00008617069D0B905F5306000EB44100069C2
:1051F000B168C1F31201084305F5306101EB4411B8
:10520000086105F5306000EB4410006940F40021AE
:1052100005F5306000EB4410016126E0B16870696B
:105220000844401EB0FBF1F01FFA80F805F530602D
:1052300000EB441000692A49C94301EAC841084308
:1052400005F5306101EB4411086105F5306000EBB4
:1052500044100069B16801FB08F1C1F31201084371
:1052600005F5306101EB44110861012F07D1F068A9
:1052700028B105F5306000EB4410F1684161F07829
:1052800001281ED140F60800405900F4807060B932
:1052900005F5306000EB4410006840F0005105F562
:1052A000306000EB441001600BE005F5306000EB6E
:1052B0004410006840F0805105F5306000EB441068
:1052C000016005F5306000EB4410006840F00441D7
:1052D00005F5306000EB441001600020BDE8F88364
:1052E000FFFF07E00146886840F001008860002069
:1052F00070470000014600221020086100BF501CCA
:105300000246064B984201D903207047086900F015
:1053100010001028F3D00020F7E70000400D030034
:1053200010B502460023202040EA8110106100BF22
:10533000581C0346054CA04201D9032010BD10693A
:1053400000F020002028F3D00020F7E7400D0300F4
:1053500010B501460B4640F60804E45804F0060276
:105360000AB9002006E0022A01D0062A01D1032052
:1053700000E0002010BD0146486900F001007047C0
:1053800001460B4640F61800C258001DC0580240A6
:1053900090B2704701460B4640F61800C258001DF7
:1053A000C0580240100C704770B5024613464FF4C7
:1053B0000166F45840F63406F55801F00F0625FA58
:1053C00006F606F0010644EAC61403F5106606EB7D
:1053D0004116B66806EA040070BD10B502461346D1
:1053E00003F5306404EB4114A06840F61404E4585B
:1053F000204010BD014648698A6910407047F0B5E9
:1054000003461E460846D71CBD08002405E04FF49D
:105410008057BF590760001D641CAC42F7D3F0BD34
:1054200070B504460D46E06820F0C040E060012DF4
:1054300004D1E06840F00050E06007E025B9E06882
:1054400040F08040E06001E0012070BD3220FBF7B9
:1054500083F90020F9E710B502460B461146D1F852
:10546000000820F4FE60C1F80008D1F800084FF4ED
:10547000FE6404EA03142043C1F80008002010BDB4
:1054800002461346D3F800080843C3F8000800207A
:105490007047000030B503461446032C49D12D480F
:1054A000814204D32C48814201D20F2245E02A4890
:1054B000814204D32948814201D20E223DE027488F
:1054C000814204D32648814201D20D2235E024488E
:1054D000814204D32348814201D20C222DE021488D
:1054E000814204D32048814201D20B2225E01E488C
:1054F000814204D31D48814201D20A221DE01B488B
:10550000814204D31A48814201D2092215E0184889
:10551000814204D31748814201D208220DE0154888
:10552000814204D31448814201D2072205E00622B9
:1055300003E00CB9092200E00922D86820F4705079
:10554000D860D8684FF4705505EA82252843D860A2
:10555000002030BDC0ACD800C0E1E4000024F4005D
:1055600080730601A0491A01002D310140A44C01AD
:1055700000366E0120ABA6010048E8012DE9F0439A
:1055800004460D46DDF81CC0A0462E46BCF1000FB7
:105590000FD1D81C8708002109E008F5805000EBE6
:1055A0000230D6F80090C0F80090361D491CB94270
:1055B000F3D30020BDE8F08300BFFEE70FB4054B36
:1055C00010B503A9044A029800F034F810BC5DF845
:1055D00014FB00003D5B0008440100200248006805
:1055E000C0F30220704700000CED00E010B5002869
:1055F00004DB0A07130E054A135406E00A07140ECB
:10560000034A00F00F031B1FD45410BD00E400E058
:1056100018ED00E002E008C8121F08C1002AFAD104
:1056200070477047002001E001C1121F002AFBD122
:10563000704700002DE9FF4F8DB00F46054600264C
:1056400006E025280BD0DDE90F1290476D1C761C73
:1056500028780028F5D111B03046BDE8F08F00243D
:10566000A246A1460122EC4900E0044315F8013F9F
:10567000203B02FA03F00842F7D128782A2810D0FC
:105680006FF02F022878A0F13001092914D80AEB15
:105690008A0102EB410144F0020400EB010A6D1C97
:1056A000F0E701CF5FEA000A03D544F40054CAF1E1
:1056B000000A44F002046D1C28782E2817D115F832
:1056C000010F44F004042A280ED06FF02F0228782E
:1056D000A0F1300109290AD809EB890102EB410147
:1056E00000EB01096D1CF2E757F8049B6D1C28784C
:1056F0006C280FD006DC4C2817D068280DD06A28FB
:1057000014D104E0742810D07A280FD10DE044F4AD
:1057100000140AE044F4801401E044F44014697871
:10572000814202D104F580146D1C6D1C2A786E2A0A
:105730001FD00CDC632A31D004DC002A8BD0582A1D
:1057400011D1A3E0642A68D0692A0CD165E0732ADC
:105750002ED004DC6F2A73D0702A04D19BE0752A06
:105760006FD0782A6ED01046DDE90F129047761C74
:1057700050E1C4F30250022806D0032809D00428BF
:1057800001CF09D0066045E101CFF117C0E9006102
:1057900040E101CF06803DE106703BE117F8040BC4
:1057A0008DF8000000208DF80100EB46012003E099
:1057B00057F804BB4FF0FF3061074FF0000102D4EF
:1057C0000DE008F10101884649450FDA8045F8DB14
:1057D0001BF808100029F4D108E008F101018846FF
:1057E0008142FADB1BF808100029F6D1DDE90F230E
:1057F000AAEB08008146214600F036F9304400EB60
:10580000080604E0DDE90F121BF8010B9047B8F120
:105810000108F7D221464846F7E00A21C4F30253B3
:105820004FF0000B0891022B04D001CFC117032BBE
:1058300009D00AE0FF1D27F00707F7E8020108E09A
:1058400032E01FE020E000B2C117042B01D140B2CA
:10585000C117031E71F1000307DA4FF0000CD0EB03
:105860000C006CEB01012D2302E0230504D52B2352
:105870008DF82430012303E0E30701D02023F7E76C
:10588000984658E00A2110E010210EE010204FF059
:10589000000B08900CE010214FF0000B44F00404C2
:1058A0004FF00809089103E008214FF0000B089120
:1058B000C4F30253022B04D001CF0021032B06D0E6
:1058C00006E0FF1D27F00707F7E8020103E080B2BA
:1058D000042B00D1C0B24FF0000823072BD5702A4B
:1058E00007D0DDF820C08CF0100C5CEA0B0C05D062
:1058F0000EE040238DF82430012308E050EA010334
:1059000006D030238DF824308DF8252002239846C8
:10591000DDF820C08CF0080C5CEA0B0C0BD150EACF
:10592000010301D1630706D530238DF824304FF0F1
:105930000108A9F10109582A04D038A20B9208AA3B
:105940000A920BE03AA2F9E75B46089AFAF770FC74
:105950000B9B9B5C0A9A521E0A92137050EA01023A
:10596000F2D10A98ADEB000000F1200B600702D5E0
:1059700024F4803401E04FF00109D94502DDA9EBA0
:105980000B0000E0002000EB0B0141440890AAEB63
:10599000010AE00306D4DDE90F232146504600F05A
:1059A00063F806444FF0000908E009A911F809005E
:1059B000DDE90F12904709F10109761CC145F4DBBE
:1059C000E0030CD5DDE90F232146504600F04CF8EA
:1059D000064404E0DDE90F1230209047761C089958
:1059E000481E08900029F5DC08E00A980A9900781A
:1059F000491C0A91DDE90F129047761CBBF10001AA
:105A0000ABF1010BF1DC21465046DDE90F2300F03C
:105A100019F806446D1C1BE60928010030313233A9
:105A200034353637383961626364656600000000DA
:105A300030313233343536373839414243444546C4
:105A4000000000002DE9F041044600251E461746DF
:105A5000880404D405E039462020B0476D1C641E3C
:105A6000F9D52846BDE8F0812DE9F041044600252E
:105A70001E469046C80301D5302700E02027880441
:105A800004D505E041463846B0476D1C641EF9D583
:105A90002846BDE8F081000001461C48814201D241
:105AA000002070471A48814201D20120F9E71948C5
:105AB000814201D20220F4E71748814201D203203B
:105AC000EFE71648814201D20420EAE714488142F8
:105AD00001D20520E5E71348814201D20620E0E724
:105AE000B1F1016F01D20720DBE70F48814201D2FB
:105AF0000820D6E70D48814201D20920D1E70C48A1
:105B0000814201D20A20CCE70B20CAE700800008BE
:105B100000000108008001080000020800000408DD
:105B20000000080800000C08000014080000180815
:105B300000001C08014608687047000013B50C46B9
:105B40004FF6FF73012269460248FDF741F80098BD
:105B50001CBD00005001002010B5002821D0114BC1
:105B60000022001F196803E0814203D80A464968F1
:105B70000029F9D152B11368841A9C4204D10068FB
:105B800018441060104602E0506000E0186039B11F
:105B900002680B1A934203D10B681A4402604968E9
:105BA000416010BD4801002070B586B00446002059
:105BB000009000250026164D284600EB8406FAF7D3
:105BC00091FE19E02846FFF7B5FF401C78B1002090
:105BD00001902846FFF760FF039001200490022007
:105BE0000590694601A8FAF7CBFD08B106E02D1D26
:105BF0004CF25030FAF742FDB542E3D300BF4CF20D
:105C00005030FAF73BFDFAF711FE06B070BD000008
:105C1000000001082DE9F05F05460C4616464FF0DE
:105C2000000AD346D046C146B4F1006F02D304F057
:105C3000030008B1BDE8F09FFAF754FEA04604EB5C
:105C400086090AE02F683A46002321460220FAF727
:105C5000F7FD00B103E0241D2D1D4C45F2D300BF1C
:105C6000FAF7E4FD00BFE5E7AEB000250027A9463E
:105C700000240026A046FDF7DFF8E8E2F6480078A9
:105C800040287DDBF5480088F34909780844F3494A
:105C900008800020F04908704022F1491EA8FAF758
:105CA000F8FA9DF87800AA2802D0CC2869D199E0AA
:105CB0004FF000090120FAF74FFD1EA8FAF788FB04
:105CC00000287CD19DF87B00E64908809DF87A0089
:105CD000097800EB0120E34908800846008848F66F
:105CE0003D51884227DD002403E00020DE490855AD
:105CF000641C402CF9D31120DB4908700620487041
:105D000000208870C87008464078801EC1B2D6480E
:105D1000FAF741FB85B2D4484078801ED24A155428
:105D2000291210464078401E11544022CE49CF48D7
:105D3000FDF7F0FD81E1CEA0FFF740FCC9480088E7
:105D40003A2200FB02F1CDA0FFF738FCC5480088DD
:105D50003A2100FB01FA4FEAEA710AEB91718810CF
:105D6000FFF722FFC9A0FFF729FC0020CA490870ED
:105D7000401ECA490880CA48CA490860BB2001E0E1
:105D80005CE159E1B8490870062048709DF87A0036
:105D900088709DF87B00C87008464078801EC1B2AC
:105DA000B148FAF7F8FA85B2AF484078801EAE4A9B
:105DB0001554291210464078401E115400E010E09E
:105DC0004FF001090020B8490860B8490860002771
:105DD000742101A8FAF776FA4022A349A348FDF7F7
:105DE00099FD2AE1B9F1000F00D126E140221EA958
:105DF0009D48FAF74EFA1EA8FAF7EAFA00287DD174
:105E00009DF87B809DF87A0000EB08201FFA80F84F
:105E1000A248B0F90000A8EB0000012800D00CE176
:105E20000FFA88F09D4908809DF87900801F38445A
:105E300087B2B1F900A00AEBDA714910AAEB41016F
:105E400009B13A2100E0002101ABC8189DF8791092
:105E50008A1F1FA9FAF71DFA9049B1F9001000290D
:105E600055DD8E49B1F90010481C00EBD071491086
:105E7000A0EB410100294AD100241DE0E01C01A94A
:105E8000085C0606A01C085C46EA0046601C085C2C
:105E900046EA002601A8005D0643844801680068C0
:105EA000401C824A1060824840F821607E480068A9
:105EB000401C7D490860241DBC42DFD37B4800683C
:105EC0007C49884221D378480068B0FBF1F0401E3D
:105ED000C9104843724901EBC00A74485146026830
:105EE00075A0FFF76BFB714802686E480168704847
:105EF000FFF790FE6B480068794900E09BE008449A
:105F000068490860002069490860002753E0554946
:105F1000088800EBD0714910A0EB410100294AD05C
:105F200050490988491E5D4AB2F90020914242DC7D
:105F300000241DE0E01C01A9085C0606A01C085C0A
:105F400046EA0046601C085C46EA002601A8005D9F
:105F50000643564801680068401C544A1060544883
:105F600040F8216050480068401C4F490860241DDB
:105F70009DF87900801FA042DCD84C48026849484F
:105F8000016858A0FFF71AFB4848026845480168B5
:105F90004748FFF73FFE454800684249096801EB62
:105FA0008000404908600020404908603E48016880
:105FB00057A0FFF703FB2B480088401E3749B1F973
:105FC000001088421ADDDD20274908700846407815
:105FD000801EC1B22448FAF7DEF985B22248407823
:105FE000801E214A1554291210464078401E115433
:105FF00040221D491D48FDF78DFC1CE0EE201A498A
:10600000087008464078801EC1B21748FAF7C3F9F5
:1060100085B215484078801E134A1554291210463F
:106020004078401E115440220F491048FDF772FC81
:1060300001201949087000E000BF08E11648007807
:106040000028FAD01948006820B11848026815489D
:10605000016867E073E0000094000020AA000020BF
:10606000380A0020A4000020F8090020D0010020F8
:10607000B2C1B3FDC9C8C7F80D0A0000B9CCBCFE57
:10608000B4F3D0A13A25640D0A000000B2C1B3FDFB
:10609000CDEAB3C90D0A0000A8000020A600002028
:1060A00000000108AC000020980000209C000020A7
:1060B000780A0020D8530100B3A3B9E6D0B4C8EBE6
:1060C0002CD0B4C8EBB5D8D6B73A305825303858AC
:1060D0002020D0B4C8EBB3A4B6C83A25640D0A009A
:1060E000604F0500C6E6CAFDB0FCD0B4C8EB2CD0AA
:1060F000B4C8EBB5D8D6B73A305825303858202038
:10610000D0B4C8EBB3A4B6C83A25640D0A000000A9
:106110004669726D776172655F436F756E743A257B
:10612000640D0A004AA0FFF749FA5448026854482F
:1061300001685448FFF76EFD00205049086052483E
:10614000006852490840B0F1005F40D10220FAF7E0
:1061500003FB40214E48FAF7B5F8FF204C49087080
:106160000620487000208870C87008464078801E5D
:10617000C1B24748FAF70FF985B245484078801E0A
:10618000434A1554291210464078401E11544022AB
:106190003F494048FDF7BEFB0A20FAF7DDFAFAF75F
:1061A000B9FAFCF7DDF84320FAF736FD4FF0FF307F
:1061B000FAF732FD344840683749086032490868C8
:1061C00080F3088800BF3448006880473FE04FF004
:1061D0000009002031490860401E31490880002034
:1061E000304908802D490860804600272E492548FF
:1061F000FAF768F8742101A8FAF764F80220FAF7B0
:10620000ABFA40212248FAF75DF8112020490870C6
:106210000620487000208870C87008464078801EAC
:10622000C1B21B48FAF7B7F885B219484078801E0A
:10623000174A1554291210464078401E1154402226
:1062400013491448FDF766FB0A20FAF785FA15E5AD
:10625000B7C7B6D4C6EBB0FCD0B4C8EB2CD0B4C82A
:10626000EBB5D8D6B73A3058253038582020D0B4BE
:10627000C8EBB3A4B6C83A25640D0A009C00002000
:10628000AC000020780A0020000001080000F02F78
:10629000F8090020D0010020B00000209800002064
:1062A000A6000020A4000020604F050010B5FAF7FA
:1062B0005FFCFCF75FFFFCF715FDFCF79DFD4FF45D
:1062C00000511648FAF734FC012805D114A0FFF755
:1062D00075F9FFF7C9FC1DE016480068164908402B
:1062E000B0F1005F16D1FAF715FAFCF739F8432040
:1062F000FAF792FC4FF0FF30FAF78EFC0D48406839
:106300000E4908600B49086880F3088800BF0B48F5
:1063100000688047FFF7A8FC002010BD000802407D
:106320006E75636C656F2066373637206961700D56
:106330000A000000000001080000F02FB00000205B
:10634000F0B50B30154D20F007010024144A0FE082
:1063500003688B420BD38B4205D95E1A43184768FA
:10636000C3E9006700E04368136002C004E0021D57
:1063700010680028ECD12046002802D1286808B116
:106380000020F0BD064A07481060074A121A22F0A2
:106390000702C0E9002401202860D7E74C01002053
:1063A00048010020FC590520F85B05200000000092
:1063B00000000000010203040607080900000000B5
:1063C00001020304E4630008000000205001000003
:1063D0003C030008A464000850010020A85E0500EA
:1063E0002456000813A13B1B08F10413013C1B08B1
:1063F0002D041A75041A65101AB1041A8D0C351281
:1064000001010216408304505726020102030114C1
:10641000050F0C2D0107100219071A040309041AAD
:106420000312061009FF0901A1010901151326FF36
:106430009F9540750881020D249102C022601420AE
:1064400007041B0803041A0D0401120310FFFF3296
:1064500010198B215324F413AD381B0835044B4914
:1064600039401A6B0C1A01041A0F04C11A8D1069F5
:10647000041A9D041409022913010125C0320904DC
:106480002A02C91509211101140122221E070581C2
:106490000340E92B050107A91A31130A0632023A13
:0464A0004084B10083
:04000005080001F9F5
:00000001FF
